:020000040800F2
:1000000000C000200D0D0008390A00083F0A000852
:10001000450A00084B0A0008510A000800000000C9
:10002000000000000000000000000000570A000867
:10003000630A0008000000006F0A00087B0A00083D
:10004000550D0008550D0008550D0008550D000808
:10005000550D0008550D0008550D0008550D0008F8
:10006000550D0008550D0008550D0008890A0008B7
:10007000550D0008550D0008550D0008550D0008D8
:10008000550D0008550D0008550D0008550D0008C8
:10009000550D0008550D0008550D0008550D0008B8
:1000A000550D0008550D0008550D0008550D0008A8
:1000B000550D0008550D0008550D0008550D000898
:1000C000550D0008550D0008550D0008550D000888
:1000D000550D0008550D0008550D0008550D000878
:1000E000550D0008550D0008550D0008550D000868
:1000F000550D0008550D0008550D0008550D000858
:10010000550D0008550D0008550D0008550D000847
:10011000550D0008550D0008550D0008550D000837
:10012000550D0008550D0008550D0008550D000827
:1001300000000000000000000000000000000000BF
:1001400000000000000000000000000000000000AF
:10015000000000000000000000000000000000009F
:10016000000000000000000000000000000000008F
:10017000000000000000000000000000000000007F
:10018000000000000000000000000000000000006F
:10019000000000000000000000000000000000005F
:1001A000000000000000000000000000000000004F
:1001B000000000000000000000000000000000003F
:1001C000000000000000000000000000000000002F
:1001D000000000000000000000000000000000001F
:0401E0005FF8E0F1F3
:1001E40010B5054C237833B9044B13B10448AFF36D
:1001F40000800123237010BD1000002000000000C7
:100204009C41000808B5034B1BB103490348AFF3F5
:10021400008008BD00000000140000209C4100087C
:1002240080B584B000AF3B1D00221A605A609A600A
:10023400184B194A1A60174B00229A60154B00227A
:100244001A73144B00221A75124B4FF46022DA61B0
:10025400104B00225A600F4B01221A610D4801F025
:10026400D7FD0346002B01D000F029FB01237B605E
:100274000123BB600023FB603B1D1946054801F0C8
:10028400B1FE0346002B01D000F019FB00BF10376C
:10029400BD4680BD300000200024014080B588B0F8
:1002A40000AF786007F1100300221A605A609A6068
:1002B400DA607B681B68284A934249D1274B9B69C3
:1002C400264A43F400739361244B9B6903F400733F
:1002D400FB60FB68214B9B69204A43F00403936154
:1002E4001E4B9B6903F00403BB60BB6802233B61A4
:1002F40003237B6107F110031946194802F06CFBD4
:10030400184B194A1A60174B00225A60154B0022E9
:100314009A60144B8022DA60124B4FF480721A6197
:10032400104B4FF480625A610E4B00229A610D4BC0
:100334000022DA610B4802F09DF80346002B01D03D
:1003440000F0BDFA7B68074A1A62064A7B6853626A
:1003540000BF2037BD4680BD00240140001002408C
:1003640000080140600000200800024080B582B00F
:1003740000AF0C4B5B690B4A43F001035361094B1B
:100384005B6903F001037B607B68002200210B2082
:1003940002F039F80B2002F052F800BF0837BD46CE
:1003A40080BD00BF0010024080B588B000AF07F1E7
:1003B400100300221A605A609A60DA60424B9B690B
:1003C400414A43F0040393613F4B9B6903F00403E8
:1003D400FB60FB683C4B9B693B4A43F00803936119
:1003E400394B9B6903F00803BB60BB68364B9B69C0
:1003F400354A43F010039361334B9B6903F01003B8
:100404007B607B68002241F21001304802F065FCF9
:1004140000224FF4C0612E4802F05FFC40F6020354
:100424003B612C4B7B610023BB6107F11003194630
:10043400264802F0D1FA41F210033B6101237B61AB
:100444000023BB610223FB6107F1100319461F4817
:1004540002F0C2FA4FF460433B6100237B61002346
:10046400BB6107F110031946184802F0B5FA40239E
:100474003B6100237B610023BB6107F11003194634
:10048400154802F0A9FA4FF480733B6100237B61A5
:100494000223BB6107F1100319460D4802F09CFAD0
:1004A4004FF4C0633B6101237B610023BB610223E2
:1004B400FB6107F110031946054802F08DFA00BFED
:1004C4002037BD4680BD00BF00100240000C014033
:1004D40000080140000011100010014080B500AF79
:1004E400124B134A1A60114B124A5A600F4B0022E6
:1004F4009A600E4B0022DA600C4B4FF480421A6172
:100504000A4B00225A61094B00229A61074B0022D0
:10051400DA61064B00221A62044802F0F7FB034634
:10052400002B01D000F0CBF900BF80BDA400002057
:1005340000540040A086010080B588B000AF786008
:1005440007F1100300221A605A609A60DA607B682F
:100554001B68154A934223D1144B9B69134A43F0F9
:1005640008039361114B9B6903F00803FB60FB686C
:10057400C0233B6112237B610323FB6107F110035A
:1005840019460B4802F028FA084BDB69074A43F482
:100594000013D361054BDB6903F40013BB60BB6834
:1005A40000BF2037BD4680BD00540040001002400B
:1005B400000C014080B58AB004AF01F0A5FB00F047
:1005C40027F9FFF7F1FEFFF7D1FEFFF729FEFFF74A
:1005D40085FF00F067FA00F0BDFA00F075F93223E8
:1005E4003B610023FB6001F099F901230293182376
:1005F40001937E4B0093002300220A21052000F082
:10060400C5FF30237B223021052000F0A2FB01230B
:10061400029318230193764B009300230022322186
:10062400052000F0B3FF52237B225221052000F065
:1006340090FB01230293182301936E4B0093002334
:1006440000225421052000F0A1FF4FF480716A4874
:1006540002F02CFB0346012B23D101230293182320
:100664000193664B00931F231F226921052000F08C
:100674008DFF0123029318230193614B0093002300
:1006840000226921372000F081FF012302931823FF
:1006940001935C4B0093002300226921642000F045
:1006A40075FF4FF40051584802F000FB0346012B3C
:1006B40023D10123029318230193514B00931F2349
:1006C4001F226921372000F061FF012302931823C0
:1006D40001934A4B0093002300226921052000F076
:1006E40055FF0123029318230193464B00930023E3
:1006F40000226921642000F049FF4FF48041424800
:1007040002F0D4FA0346012B23D1012302931823C8
:1007140001933C4B00931F231F226921642000F0A6
:1007240035FF0123029318230193344B00930023D4
:1007340000226921052000F029FF012302931823D8
:1007440001932F4B0093002300226921372000F0EE
:100754001DFFBB683B614FF400412B4802F0A6FA31
:100764000346012B06D13B69B3F5E17F02DA3B690D
:1007740002333B614021254802F098FA0346012BDD
:1007840008D13B69322B03DD3B69023B3B6101E04D
:1007940032233B613A69BB689A4202DD7B683B6164
:1007A40010E03A69BB689A4202DA7B683B6109E06F
:1007B400BB683B6142F2107001F008FB7B693B614E
:1007C4007B687B617A680E2300930E2320210A2024
:1007D40000F03AFCFA680E2300930E2340210A200D
:1007E40000F032FCFB680133FB602EE7B4410008E3
:1007F400C4410008CC41000800080140D841000869
:10080400DC410008E0410008000C014000100140F8
:1008140080B596B000AF07F13003282200211846B6
:1008240003F0B2FC07F11C0300221A605A609A60BC
:10083400DA601A613B1D00221A605A609A60DA601D
:100844001A615A6102233B6301233B6410237B64D6
:100854000223FB6400233B6500237B6507F130031F
:10086400184602F08BFB0346002B01D000F027F85A
:100874000F23FB6102233B6200237B624FF48063FE
:10088400BB620023FB6207F11C030021184602F03F
:10089400F5FD0346002B01D000F011F802237B6024
:1008A4000023FB603B1D184602F070FF0346002B3B
:1008B40001D000F004F800BF5837BD4680BD80B4B5
:1008C40000AF72B6FEE7000080B500AF174B184AC0
:1008D4001A60164B4FF482725A60144B00229A60CD
:1008E400124B0022DA60114B00221A610F4B0022D6
:1008F4005A610E4B4FF400729A610C4B0022DA617C
:100904000A4B00221A62094B00225A62074B00224A
:100914009A62064B0A22DA62044802F0EDFF0346AB
:10092400002B01D0FFF7CBFF00BF80BDF8000020F3
:100934000030014080B58AB000AF786007F114033D
:1009440000221A605A609A60DA607B681B681C4A4D
:10095400934231D11B4B9B691A4A43F480539361F0
:10096400184B9B6903F480533B613B69154B9B69AE
:10097400144A43F008039361124B9B6903F0080384
:10098400FB60FB6828237B610223BB6103233B627A
:1009940007F1140319460C4802F01EF80B4B5B6870
:1009A4007B627B6A43F0E0637B627B6A43F0010312
:1009B4007B62064A7B6A536000BF2837BD4680BD10
:1009C4000030014000100240000C014000000140D2
:1009D40080B485B000AF154B9B69144A43F0010302
:1009E4009361124B9B6903F00103BB60BB680F4B1F
:1009F400DB690E4A43F08053D3610C4BDB6903F08F
:100A040080537B607B680A4B5B68FB60FB6823F068
:100A1400E063FB60FB6843F00073FB60044AFB681F
:100A2400536000BF1437BD4680BC704700100240BD
:100A34000000014080B400AFFEE780B400AFFEE7E1
:100A440080B400AFFEE780B400AFFEE780B400AF2F
:100A5400FEE780B400AF00BFBD4680BC704780B4E1
:100A640000AF00BFBD4680BC704780B400AF00BF7C
:100A7400BD4680BC704780B500AF01F08BF900BF64
:100A840080BD000080B500AF024801F069FD00BFE1
:100A940080BD00BF6000002080B400AF00BFBD4631
:100AA40080BC704780B58AB000AF07F120030022F4
:100AB4001A605A603B1D00221A605A609A60DA601C
:100AC4001A615A619A61224B4FF080421A60204B9E
:100AD40047225A601E4B00229A601D4B6422DA6042
:100AE4001B4B00221A611A4B00229A61184802F02B
:100AF40087FF0346002B01D0FFF7E1FE00233B6292
:100B040000237B6207F120031946114803F0ACFA75
:100B14000346002B01D0FFF7D2FE60237B60322313
:100B2400BB600023FB6000237B613B1D0022194650
:100B3400074802F0B5FF0346002B01D0FFF7BFFEC4
:100B4400034800F091F800BF2837BD4680BD00BFC0
:100B54009801002080B58AB000AF07F1200300227D
:100B64001A605A603B1D00221A605A609A60DA606B
:100B74001A615A619A61224B224A1A60204B002260
:100B84005A601F4B00229A601D4B4FF6FF72DA60C9
:100B94001B4B00221A611A4B00229A61184802F07A
:100BA4002FFF0346002B01D0FFF789FE00233B6291
:100BB40000237B6207F120031946114803F054FA1D
:100BC4000346002B01D0FFF77AFE60237B600023ED
:100BD400BB600023FB6000237B613B1D00221946A0
:100BE400074802F05DFF0346002B01D0FFF767FEC4
:100BF400034800F039F800BF2837BD4680BD00BF68
:100C0400500100200004004080B485B000AF78603B
:100C14007B681B68B3F1804F0CD1114BDB69104A20
:100C240043F00103D3610E4BDB6903F00103FB6066
:100C3400FB6810E07B681B680A4A93420BD1084B9F
:100C4400DB69074A43F00203D361054BDB6903F018
:100C54000203BB60BB6800BF1437BD4680BC70474D
:100C6400001002400004004080B588B000AF7860F6
:100C740007F1100300221A605A609A60DA607B68F8
:100C84001B68B3F1804F18D11C4B9B691B4A43F07E
:100C940004039361194B9B6903F00403FB60FB6835
:100CA40001233B6102237B610223FB6107F11003F3
:100CB4001946134801F090FE1CE07B681B68114A3A
:100CC400934217D10D4B9B690C4A43F00403936183
:100CD4000A4B9B6903F00403BB60BB6840233B6180
:100CE40002237B610223FB6107F1100319460448C8
:100CF40001F072FE00BF2037BD4680BD00100240E7
:100D040000080140000400400C480D490D4A00232E
:100D140002E0D458C4500433C4188C42F9D30A4AAC
:100D24000A4C002301E013600432A242FBD3FFF714
:100D3400B3FE03F005FAFFF73DFC70470000002006
:100D440010000020C858000810000020F401002002
:100D5400FEE790B58DB000AF0446084611461A462A
:100D64002346FB800346BB800B467B8013463B80B7
:100D74000023BB6200237B627A88FB88D31A3B6220
:100D84003A88BB88D31AFB61FB88FB60BB88BB60D5
:100D94003B6A002B02DD01237B610BE03B6A002BE5
:100DA40002D100237B6105E04FF0FF337B613B6A96
:100DB4005B423B62FB69002B02DD01233B610BE0DC
:100DC400FB69002B02D100233B6105E04FF0FF33A8
:100DD4003B61FB695B42FB613A6AFB699A4202DD53
:100DE4003B6ABB6101E0FB69BB610023FB852AE030
:100DF400FB689BB2BA6892B21146184600F01EFD19
:100E0400BA6A3B6A1344BB627A6AFB6913447B6225
:100E1400BA6ABB699A4207DDBA6ABB69D31ABB6274
:100E2400FA687B691344FB607A6ABB699A4207DDFE
:100E34007A6ABB69D31A7B62BA683B691344BB60A4
:100E4400FB8D0133FB85FA8DBB6901339A42CFDDFB
:100E540000BF3437BD4690BD90B585B000AF0446A1
:100E6400084611461A462346FB800346BB800B46C0
:100E74007B8013463B80624B1B887B8197F8203034
:100E8400203B87F8203097F824305B08DBB29AB215
:100E9400FB8813449BB2013B9CB297F824309AB26E
:100EA400BB8813449BB2013B9BB2B988F8882246A5
:100EB40000F054FE97F82830002B43D10023BB7375
:100EC4003AE097F824300C2B0CD197F82020B97B0A
:100ED4004C4813465B0013449B0003440B441B78AB
:100EE400FB7308E097F82020BB7B474912010A44B2
:100EF40013441B78FB7300237B7313E0FB7B03F029
:100F04000103002B04D07B88184600F06FFC03E03B
:100F14003B88184600F06AFCFB7B5B08FB737B7B19
:100F240001337B7397F824305B08DBB27A7B9A42F7
:100F3400E4D3BB7B0133BB73BA7B97F824309A426A
:100F4400BFD349E00023BB7341E097F824300C2B56
:100F54000CD197F82020B97B2A4813465B00134430
:100F64009B0003440B441B78FB7308E097F8202094
:100F7400BB7B254912010A4413441B78FB730023ED
:100F84007B731AE01E4A7B881380FB7B03F001030A
:100F9400002B0CD07B7B9AB2FB88134498B2BB7BAA
:100FA4009AB2BB8813449BB2194600F047FCFB7B02
:100FB4005B08FB737B7B01337B7397F824305B08FE
:100FC400DBB27A7B9A42DDD3BB7B0133BB73BA7B42
:100FD40097F824309A42B8D3094A7B8913800B4B83
:100FE4001B88013B9AB2094B5B88013B9BB20021F1
:100FF400002000F0B3FD00BF1437BD4690BD00BF14
:101004002C0000201042000884460008E001002063
:1010140080B485B000AF03460A46FB711346BB712A
:101024000123FB6004E0FA79FB6802FB03F3FB6035
:10103400BB795A1EBA71002BF5D1FB6818461437D8
:10104400BD4680BC70470000B0B58AB004AFBA603A
:101054001A460346FB810B46BB811346FB710023F2
:10106400BB750023FB7564E0FA79FB7DD31ADBB210
:10107400013BDBB219460A20FFF7CAFF0246BB68F0
:10108400B3FBF2F12F4BA3FB0123DA0813469B00B9
:1010940013445B00CA1A13467B75BB7D002B26D113
:1010A400FA7DFB79013B9A4221DA7B7D002B1CD12E
:1010B40097F828305B08DBB29BB2FA7D92B202FB50
:1010C40003F39AB2FB89134498B21F4B1A881F4B3F
:1010D4001C88B9890023029397F8283001932023B0
:1010E40000932346FFF7B8FE20E00123BB7597F871
:1010F40028305B08DBB29BB2FA7D92B202FB03F3A9
:101104009AB2FB89134498B20F4B1C880F4B1D886D
:101114007B7D3033DBB2B9890022029297F8282014
:10112400019200932B462246FFF796FEFB7D013386
:10113400FB75FA7DFB799A4296D300BF1837BD46FA
:10114400B0BD00BFCDCCCCCC2C00002004000020CE
:1011540090B585B000AF0446084611461A462346AA
:10116400FB800346BB800B467B8013463B80FB8899
:101174007B813E233B810023BB8183E0BA894C49B8
:1011840013461B0113445B000B441A783B6A1B781B
:101194009A4274D1BA89464913461B0113445B0031
:1011A4000B4401331A783B6A01331B789A4266D1A7
:1011B400FB880F339AB2BB880F339BB2B988F88887
:1011C40000F0CCFC0023FB7356E00023BB734DE01E
:1011D40097F82430002B1CD1BA89F97B3448134684
:1011E4001B0113445B0003440B4402331B78194670
:1011F400BB7B802242FA03F30B40002B04D07B8894
:10120400184600F0F3FA2EE03B88184600F0EEFA98
:1012140029E0284A7B881380BA89F97B244813463D
:101224001B0113445B0003440B4402331B7819462F
:10123400BB7B802242FA03F30B40002B05D0BA8813
:10124400FB881146184600F0F9FAFB880133FB804D
:10125400FA887B89D31A102B05D17B89FB80BB8844
:101264000133BB8005E0BB7B0133BB73BB7B072B26
:10127400AED9FB7B0133FB73FB7B1F2BA5D9BB8949
:101284000133BB81BA893B899A42FFF477AF0A4B99
:101294001B88013B9AB2084B5B88013B9BB200213F
:1012A400002000F05BFC00BF1437BD4690BD00BFBA
:1012B400744C00082C000020E001002090B585B09B
:1012C40000AF0446084611461A462346FB800346EF
:1012D400BB800B467B8013463B80FB887B810723C6
:1012E4003B810023BB817FE0BB894A4A4A2101FB41
:1012F40003F313441A783B6A1B789A4271D1BB8971
:10130400444A4A2101FB03F3134401331A783B6A2C
:1013140001331B789A4264D1FB8817339AB2BB8895
:1013240017339BB2B988F88800F018FC0023FB73CC
:1013340054E00023BB734BE097F82430002B1BD1FF
:10134400BA89FB7B33494A2000FB02F20A44134466
:1013540002331B781946BB7B802242FA03F30B400D
:10136400002B04D07B88184600F040FA2DE03B881F
:10137400184600F03BFA28E0274A7B881380BA8994
:10138400FB7B24494A2000FB02F20A441344023343
:101394001B781946BB7B802242FA03F30B40002BD7
:1013A40005D0BA88FB881146184600F047FAFB8836
:1013B4000133FB80FA887B89D31A182B05D17B89EA
:1013C400FB80BB880133BB8005E0BB7B0133BB736F
:1013D400BB7B072BB0D9FB7B0133FB73FB7B472B18
:1013E400A7D9BB890133BB81BA893B899A42FFF4EF
:1013F4007BAF0A4B1B88013B9AB2084B5B88013BCD
:101404009BB20021002000F0A9FB00BF1437BD46A9
:1014140090BD00BFB05400082C000020E001002063
:1014240090B585B000AF0446084611461A462346D7
:10143400FB800346BB800B467B8013463B80FB88C6
:101444007B8104233B810023BB8184E0BA894C491E
:1014540013469B0113445B000B441A783B6A1B78C8
:101464009A4275D1BA89464913469B0113445B00DD
:101474000B4401331A783B6A01331B789A4267D1D3
:10148400FB881F339AB2BB881F339BB2B988F88894
:1014940000F064FB0023FB7356E00023BB734DE0B4
:1014A40097F82430002B1CD1BA89F97B34481346B1
:1014B4009B0113445B0003440B4402331B7819461D
:1014C400BB7B802242FA03F30B40002B04D07B88C1
:1014D400184600F08BF92EE03B88184600F086F998
:1014E40029E0284A7B881380BA89F97B244813466B
:1014F4009B0113445B0003440B4402331B781946DD
:10150400BB7B802242FA03F30B40002B05D0BA8840
:10151400FB881146184600F091F9FB880133FB80E3
:10152400FA887B89D31A202B05D17B89FB80BB8861
:101534000133BB8005E0BB7B0133BB73BB7B072B53
:10154400AED9FB7B0133FB7397F90F30002BA4DA80
:10155400BB890133BB81BA893B899A42FFF476AFD8
:10156400094B1B88013B9AB2074B5B88013B9BB23A
:101574000021002000F0F2FA00BF1437BD4690BDF0
:10158400B85600082C000020E0010020B0B588B057
:1015940004AF0446084611461A462346FB80034618
:1015A400BB800B467B8013463B80FB88BB810023BA
:1015B400FB73AFE0FB7B002B61D1FA885B4B1B888C
:1015C400194697F824305B08DBB2CB1A9A4200F331
:1015D400A780BA88554B5B88194697F82430CB1AF4
:1015E4009A4200F39D803B6A1B78802B02D9012329
:1015F400FB738FE03B6A1B780D2B0BD197F82430DB
:101604009AB2BB881344BB80BB89FB803B6A01331D
:101614003B6230E097F82430102B13D93B6A1B78D7
:101624003D887C88B988F88897F82820029210228F
:10163400019200932B462246FFF70EFCFB880833E9
:10164400FB8018E03B6A1B783D887C88B988F88861
:1016540097F82820029297F82420019200932B46B1
:101664002246FFF7F9FB97F824305B08DBB29AB205
:10167400FB881344FB803B6A01333B624AE0FA88EF
:101684002A4B1B88194697F82430CB1A9A4249DC16
:10169400BA88264B5B88194697F82430CB1A9A42AD
:1016A40040DC0023FB7397F82430202B0CD13C88BA
:1016B4007A88B988F88897F8283001933B6A0093B0
:1016C4002346FFF7ADFE1CE097F82430182B0CD10D
:1016D4003C887A88B988F88897F8283001933B6A5F
:1016E40000932346FFF7EAFD0BE03C887A88B9882B
:1016F400F88897F8283001933B6A00932346FFF754
:1017040027FD3B6A02333B6297F824309AB2FB8888
:101714001344FB803B6A1B78002B7FF44BAF02E041
:1017240000BF00E000BF1037BD46B0BDE00100209F
:1017340080B582B000AF0346FB710A4B4FF00072D4
:101744001A61084B4FF080621A61FB79194606480A
:1017540000F0AAFA034B4FF400721A6100BF083775
:10176400BD4680BD000801400030014080B582B014
:1017740000AF0346FB710A4B4FF000721A61084B2D
:101784004FF480621A61FB791946064800F08CFA1E
:10179400034B4FF400721A6100BF0837BD4680BD89
:1017A400000801400030014080B582B000AF03461C
:1017B4000A46FB711346BB80FB791846FFF7B8FF56
:1017C400BB88DBB21846FFF7D1FF00BF0837BD4620
:1017D40080BD000080B500AF034B1B89DBB2184607
:1017E400FFF7A6FF00BF80BDE001002080B582B0F6
:1017F40000AF0346FB800F4B4FF000721A610D4B94
:101804004FF480621A61FB881B0A9BB2DBB2194653
:10181400094800F049FAFB88DBB21946064800F093
:1018240043FA044B4FF400721A6100BF0837BD46F7
:1018340080BD00BF000801400030014080B582B087
:1018440000AF03460A46FB801346BB80BA88FB8878
:101854001146184600F0C6F9044B1B881846FFF7DA
:10186400C5FF00BF0837BD4680BD00BF2C00002067
:1018740080B584B000AF0346FB801C4B1B88013B42
:101884009AB21A4B5B88013B9BB20021002000F006
:1018940065F9174B4FF000721A61154B4FF48062D3
:1018A4001A610023FB6012E00023BB6006E0FB88A2
:1018B4001846FFF79BFFBB680133BB600B4B1B88CB
:1018C4001A46BB689342F2D3FB680133FB60074BB3
:1018D4005B881A46FB689342E6D3054B4FF40072CB
:1018E4001A6100BF1037BD4680BD00BFE001002073
:1018F4000008014080B500AF074B4FF480121A6115
:10190400642000F063FA044B10221A61322000F0C4
:101914005DFA00BF80BD00BF000C014080B500AF80
:1019240000F0E2F9FFF7E6FF1120FFF701FF78204E
:1019340000F04CFAB120FFF7FBFE0120FFF716FF81
:101944002C20FFF713FF2D20FFF710FFB220FFF725
:10195400EFFE0120FFF70AFF2C20FFF707FF2D20E1
:10196400FFF704FFB320FFF7E3FE0120FFF7FEFEBD
:101974002C20FFF7FBFE2D20FFF7F8FE0120FFF7D8
:10198400F5FE2C20FFF7F2FE2D20FFF7EFFEB4202A
:10199400FFF7CEFE0720FFF7E9FEC020FFF7C8FEE1
:1019A400A220FFF7E3FE0220FFF7E0FE8420FFF70A
:1019B400DDFEC120FFF7BCFEC520FFF7D7FEC22025
:1019C400FFF7B6FE0A20FFF7D1FE0020FFF7CEFE98
:1019D400C320FFF7ADFE8A20FFF7C8FE2A20FFF7D9
:1019E400C5FEC420FFF7A4FE8A20FFF7BFFEEE2049
:1019F400FFF7BCFEC520FFF79BFE0E20FFF7B6FEE7
:101A04003620FFF795FEC020FFF7B0FEE020FFF779
:101A14008FFE0F20FFF7AAFE1A20FFF7A7FE0F2064
:101A2400FFF7A4FE1820FFF7A1FE2F20FFF79EFE6C
:101A34002820FFF79BFE2020FFF798FE2220FFF7C7
:101A440095FE1F20FFF792FE1B20FFF78FFE232039
:101A5400FFF78CFE3720FFF789FE0020FFF786FE94
:101A64000720FFF783FE0220FFF780FE1020FFF718
:101A74007DFEE120FFF75CFE0F20FFF777FE1B20C1
:101A8400FFF774FE0F20FFF771FE1720FFF76EFEBD
:101A94003320FFF76BFE2C20FFF768FE2920FFF7A9
:101AA40065FE2E20FFF762FE3020FFF75FFE302038
:101AB400FFF75CFE3920FFF759FE3F20FFF756FE83
:101AC4000020FFF753FE0720FFF750FE0320FFF727
:101AD4004DFE1020FFF74AFE2A20FFF729FE0020C2
:101AE400FFF744FE0020FFF741FE0020FFF73EFE13
:101AF4007F20FFF73BFE2B20FFF71AFE0020FFF7A5
:101B040035FE0020FFF732FE0020FFF72FFE9F2056
:101B1400FFF72CFEF020FFF70BFE0120FFF726FE57
:101B2400F620FFF705FE0020FFF720FE3A20FFF71E
:101B3400FFFD0520FFF71AFE2920FFF7F9FD00201D
:101B440000F062F8044B4FF480521A614FF6FF70B4
:101B5400FFF78EFE00BF80BD000C014090B583B03E
:101B640000AF0446084611461A462346FB80034646
:101B7400BB800B467B8013463B80194B5B89DBB2F1
:101B84001846FFF7D5FD0020FFF7F0FDFB88DBB218
:101B94001846FFF7EBFD0020FFF7E8FD7B88DBB27A
:101BA4001846FFF7E3FD0E4B9B89DBB21846FFF79F
:101BB400BFFD0020FFF7DAFDBB88DBB21846FFF754
:101BC400D5FD0020FFF7D2FD3B88DBB21846FFF7B6
:101BD400CDFDFFF7FFFD00BF0C37BD4690BD00BF34
:101BE400E001002080B582B000AF03460A46FB80C6
:101BF4001346BB80BB88FA88B988F888FFF7AEFF24
:101C040000BF0837BD4680BD80B582B000AF034633
:101C1400FB71244B2A225A81224B2B229A81214B7D
:101C24002C221A81FB79032B36D801A252F823F017
:101C3400451C00085B1C0008711C0008871C000878
:101C4400184B80221A80174BA0225A80C0213620BC
:101C5400FFF7AAFD21E0134BA0221A80114B80222A
:101C64005A80A0213620FFF79FFD16E00D4B8022FD
:101C74001A800C4BA0225A8000213620FFF794FDD5
:101C84000BE0084BA0221A80064B80225A80602168
:101C94003620FFF789FD00E000BF00BF0837BD46CE
:101CA40080BD00BFE001002080B483B000AF786045
:101CB4000B46FB7000BF7B689B6803F00203002B9C
:101CC400F9D0FA787B68DA6000BF7B689B6803F020
:101CD4000103002BF9D07B68DB68DBB218460C37B4
:101CE400BD4680BC7047000080B400AF054B1B6844
:101CF4001A68044B1B6842F040021A6000BFBD46DC
:101D040080BC7047F800002080B500AF084B1B680A
:101D1400074A43F010031360032000F069FB00201E
:101D240000F008F8FEF754FE0023184680BD00BFFB
:101D34000020024080B582B000AF7860124B1A6870
:101D4400124B1B7819464FF47A73B3FBF1F3B2FBD1
:101D5400F3F3184600F081FB0346002B01D0012366
:101D64000EE07B680F2B0AD8002279684FF0FF3011
:101D740000F049FB064A7B681360002300E001235E
:101D840018460837BD4680BD000000200C00002026
:101D94000800002080B400AF054B1B781A46054BA1
:101DA4001B681344034A136000BFBD4680BC7047E0
:101DB4000C000020F001002080B400AF024B1B682F
:101DC4001846BD4680BC7047F001002080B584B041
:101DD40000AF7860FFF7F0FFB8607B68FB60FB68DA
:101DE400B3F1FF3F05D0094B1B781A46FB68134437
:101DF400FB6000BFFFF7E0FF0246BB68D31AFA6836
:101E04009A42F7D800BF1037BD4680BD0C000020B1
:101E140080B586B000AF78600023FB7500233B617A
:101E24000023BB600023FB607B68002B01D10123EE
:101E3400CEE07B689B68002B7B689B6A002B09D1F2
:101E44007B680022DA627B68002283F824207868A9
:101E5400FEF724FA786800F0BDF90346FB757B6849
:101E64009B6A03F01003002B40F0A980FB7D002B3C
:101E740040F0A5807B689B6A23F4885323F0020317
:101E840043F002027B689A627B685A687B681B682D
:101E940051498B420AD17B68DB69B3F5402F02D0EC
:101EA4007B68DB6904E04FF4002301E07B68DB69B5
:101EB4001A437B681B7B5B001343BA681343BB6004
:101EC4007B689B68B3F5807F03D07B689B68012B9C
:101ED40002D14FF4807300E000233A6913433B615D
:101EE4007B681B7D012B19D17B681B7B002B09D1DF
:101EF4007B689B69013B5A033B69134343F40063CA
:101F04003B610BE07B689B6A43F020027B689A622A
:101F14007B68DB6A43F001027B68DA627B681B68DA
:101F24005B6823F469417B681B683A690A435A6019
:101F34007B681B689A68294B13407A681268B968F1
:101F44000B4393607B689B68B3F5807F03D07B6809
:101F54009B68012B04D17B681B69013B1B05FB605B
:101F64007B681B68DB6A23F470017B681B68FA6872
:101F74000A43DA627B681B689A68194B1340BA6893
:101F84009A420BD17B680022DA627B689B6A23F059
:101F9400030343F001027B689A6218E07B689B6A42
:101FA40023F0120343F010027B689A627B68DB6AB9
:101FB40043F001027B68DA620123FB7507E07B686A
:101FC4009B6A43F010027B689A620123FB75FB7DD8
:101FD40018461837BD4680BD003C0140FDF7E1FFBF
:101FE400FE0E1FFF80B485B000AF78603960002317
:101FF400FB730023BB607B6893F82430012B01D171
:102004000223DCE07B68012283F824203B685B68C0
:10201400062B1CD87B681B68596B3B685A681346AF
:102024009B001344053B1F2202FA03F3DB431940D0
:102034003B6818683B685A6813469B001344053B89
:1020440000FA03F27B681B680A435A633CE03B686E
:102054005B680C2B1CD87B681B68196B3B685A683F
:1020640013469B001344233B1F2202FA03F3DB4372
:1020740019403B6818683B685A6813469B00134430
:10208400233B00FA03F27B681B680A431A631BE0D4
:102094007B681B68D96A3B685A6813469B001344E3
:1020A400413B1F2202FA03F3DB4319403B681868E3
:1020B4003B685A6813469B001344413B00FA03F201
:1020C4007B681B680A43DA623B681B68092B1CD9CE
:1020D4007B681B68D9683B681A6813465B00134425
:1020E4001E3B072202FA03F3DB4319403B6898685E
:1020F4003B681A6813465B0013441E3B00FA03F264
:102104007B681B680A43DA6019E07B681B681969FD
:102114003B681A6813465B001344072202FA03F370
:10212400DB4319403B6898683B681A6813465B00B8
:10213400134400FA03F27B681B680A431A613B6884
:102144001B68102B03D03B681B68112B32D17B68B2
:102154001B681D4A934225D17B681B689B6803F466
:102164000003002B26D17B681B689A687B681B6878
:1021740042F400029A603B681B68102B1AD1134B7F
:102184001B68134AA2FB03239A0C13469B001344B7
:102194005B00BB6002E0BB68013BBB60BB68002B1B
:1021A400F9D107E07B689B6A43F020027B689A625E
:1021B4000123FB737B68002283F82420FB7B1846F1
:1021C4001437BD4680BC7047002401400000002045
:1021D40083DE1B4380B584B000AF78600023FB60CE
:1021E4007B681B689B6803F00103012B2ED17B687D
:1021F4001B689A687B681B6822F001029A60FFF7EB
:10220400DBFDF8601BE0FFF7D7FD0246FB68D31A3D
:10221400022B14D97B681B689B6803F00103012B14
:102224000DD17B689B6A43F010027B689A627B68DD
:10223400DB6A43F001027B68DA62012307E07B6812
:102244001B689B6803F00103012BDCD000231846B4
:102254001037BD4680BD000080B485B000AF786003
:102264007B6803F00703FB600C4BDB68BB60BA6858
:102274004FF6FF031340BB60FB681A02BB681343AD
:1022840043F0BF6343F40033BB60044ABB68D360CC
:1022940000BF1437BD4680BC704700BF00ED00E0AE
:1022A40080B400AF044BDB681B0A03F00703184635
:1022B400BD4680BC704700BF00ED00E080B483B031
:1022C40000AF0346FB7197F90730002B0BDBFB795A
:1022D40003F01F02064997F907305B09012000FA51
:1022E40002F241F8232000BF0C37BD4680BC704782
:1022F40000E100E080B483B000AF03463960FB71B5
:1023040097F90730002B0ADB3B68DAB20C4997F9DE
:1023140007301201D2B20B4483F800230AE03B6871
:10232400DAB20849FB7903F00F03043B1201D2B27D
:102334000B441A7600BF0C37BD4680BC704700BF03
:1023440000E100E000ED00E080B489B000AFF86087
:10235400B9607A60FB6803F00703FB61FB69C3F1B2
:102364000703042B28BF0423BB61FB690433062B3A
:1023740002D9FB69033B00E000237B614FF0FF328D
:10238400BB6902FA03F3DA43BB681A407B699A40DB
:102394004FF0FF317B6901FA03F3D9437B680B40AB
:1023A400134318462437BD4680BC704780B582B0BD
:1023B40000AF78607B68013BB3F1807F01D30123D8
:1023C4000FE00A4A7B68013B53600F214FF0FF3056
:1023D400FFF790FF054B00229A60044B07221A6016
:1023E400002318460837BD4680BD00BF10E000E05A
:1023F40080B582B000AF78607868FFF72DFF00BF2A
:102404000837BD4680BD80B586B000AF0346B960CD
:102414007A60FB7300237B61FFF742FF78617A687F
:10242400B9687869FFF790FF024697F90F301146B3
:102434001846FFF75FFF00BF1837BD4680BD80B563
:1024440082B000AF0346FB7197F907301846FFF7D7
:1024540035FF00BF0837BD4680BD80B582B000AFF0
:1024640078607868FFF7A2FF034618460837BD4630
:1024740080BD000080B485B000AF78600023FB60AD
:102484007B68002B01D1012359E07B681B681A4645
:102494002D4B9A420FD87B681B681A462B4B13446A
:1024A4002B4AA2FB03231B099A007B681A647B68EE
:1024B400284ADA630EE07B681B681A46264B1344ED
:1024C400234AA2FB03231B099A007B681A647B68D6
:1024D400224ADA637B68022283F821207B681B6826
:1024E4001B68FB60FB6823F47F5323F03003FB601D
:1024F4007B685A687B689B681A437B68DB681A436D
:102504007B681B691A437B685B691A437B689B6918
:102514001A437B68DB691343FA681343FB607B68E7
:102524001B68FA681A607B6800229A637B68012240
:1025340083F821207B68002283F82020002318469A
:102544001437BD4680BC704707040240F8FFFDBF46
:10255400CDCCCCCC00000240F8FBFDBF000402400F
:1025640080B584B000AF78607B68DB6B1B68FB6070
:102574007B681B681B68BB607B681B6C04229A40E9
:10258400FB681340002B00F0D680BB6803F0040303
:10259400002B00F0D0807B681B681B6803F02003CD
:1025A400002B07D17B681B681A687B681B6822F0C4
:1025B40004021A607B681B681A469B4B9A4258D9DE
:1025C4007B681B68994A93424FD07B681B68984A82
:1025D400934248D07B681B68964A934240D07B68FC
:1025E4001B68954A934238D07B681B68934A934290
:1025F40030D07B681B68924A934228D07B681B6862
:10260400894A934220D07B681B688E4A934219D032
:102614007B681B688C4A934212D07B681B688B4A88
:1026240093420AD07B681B68894A934202D14FF4D3
:1026340080431BE04FF4802318E04FF4806315E0DF
:10264400402313E0042311E04FF080630EE04FF4C5
:1026540080030BE04FF4802308E04FF4804305E04F
:102664004FF4806302E0402300E00423794A53607E
:1026740057E07B681B686D4A93424FD07B681B68A8
:102684006B4A934248D07B681B686A4A934240D0A5
:102694007B681B68684A934238D07B681B68674A2A
:1026A400934230D07B681B68654A934228D07B688C
:1026B4001B685D4A934220D07B681B68614A934241
:1026C40019D07B681B68604A934212D07B681B68F0
:1026D4005E4A93420AD07B681B685D4A934202D1EA
:1026E4004FF480431BE04FF4802318E04FF48063E1
:1026F40015E0402313E0042311E04FF080630EE063
:102704004FF480030BE04FF4802308E04FF4804340
:1027140005E04FF4806302E0402300E004234E4AC6
:1027240053607B68DB6A002B00F036817B68DB6AD0
:102734007868984730E17B681B6C02229A40FB68FA
:102744001340002B00F0F880BB6803F00203002B59
:1027540000F0F2807B681B681B6803F02003002BE9
:102764000BD17B681B681A687B681B6822F00A021D
:102774001A607B68012283F821207B681B681A4653
:10278400294B9A4273D97B681B68284A93426AD0C2
:102794007B681B68264A934263D07B681B68254A82
:1027A40093425BD07B681B68234A934238D07B6892
:1027B4001B68224A934230D07B681B68204A9342AC
:1027C40028D07B681B68184A934220D07B681B681A
:1027D4001C4A934219D07B681B681B4A934212D04F
:1027E4007B681B68194A93420AD07B681B68184AA5
:1027F400934202D14FF4005336E04FF4003333E0F8
:102804004FF4007330E020232EE002232CE04FF03D
:10281400007329E04FF4001326E04FF4003323E063
:102824004FF4005320E000BF800002400800024043
:102834001C000240300002404400024058000240A4
:102844006C000240080402401C04024030040240B0
:102854004404024000040240000002404FF40073AC
:1028640002E0202300E002234E4A536057E07B68D5
:102874001B684D4A93424FD07B681B684B4A934276
:1028840048D07B681B684A4A934240D07B681B68E7
:10289400484A934238D07B681B68474A934230D0F9
:1028A4007B681B68454A934228D07B681B68444A6E
:1028B400934220D07B681B68424A934219D07B68BC
:1028C4001B68414A934212D07B681B683F4A93427B
:1028D4000AD07B681B683E4A934202D14FF40053EE
:1028E4001BE04FF4003318E04FF4007315E020238D
:1028F40013E0022311E04FF000730EE04FF40013D5
:102904000BE04FF4003308E04FF4005305E04FF4BC
:10291400007302E0202300E002232E4A53607B6808
:10292400002283F820207B689B6A002B34D07B68CC
:102934009B6A786898472FE07B681B6C08229A4052
:10294400FB681340002B28D0BB6803F00803002B5E
:1029540023D07B681B681A687B681B6822F00E0210
:102964001A607B681A6C7B68DB6B012101FA02F246
:102974005A607B6801229A637B68012283F82120D4
:102984007B68002283F820207B681B6B002B04D01B
:102994007B681B6B7868984700BF00BF1037BD4643
:1029A40080BD00BF00040240080002401C00024039
:1029B4003000024044000240580002406C000240D3
:1029C40080000240080402401C040240300402401B
:1029D400440402400000024080B48BB000AF786031
:1029E400396000237B6200233B6233E101227B6A6E
:1029F40002FA03F3FB613B681B68FA691340BB618D
:102A0400BA69FB699A4240F022813B685B68122BE9
:102A140034D0122B0DD8022B2BD0022B04D8002B30
:102A240031D0012B1CD048E0032B43D0112B1BD0F9
:102A340043E08F4A934226D08D4A934206D88D4A6A
:102A4400934220D08C4A93421DD036E08B4A934265
:102A540019D08B4A934216D08A4A934213D02CE061
:102A64003B68DB683B6228E03B68DB6804333B621D
:102A740023E03B68DB6808333B621EE03B68DB68AD
:102A84000C333B6219E03B689B68002B02D10423A2
:102A94003B6212E03B689B68012B05D108233B6233
:102AA4007B68FA691A6108E008233B627B68FA696B
:102AB4005A6102E000233B6200BFBB69FF2B01D8CF
:102AC4007B6801E07B6804337B61BB69FF2B02D820
:102AD4007B6A9B0002E07B6A083B9B003B617B694D
:102AE4001A680F213B6901FA03F3DB431A40396A80
:102AF4003B6901FA03F31A437B691A603B685B681C
:102B040003F08053002B00F0A2805F4B9B695E4A68
:102B140043F0010393615C4B9B6903F00103BB60C9
:102B2400BB685A4A7B6A9B08023352F82330FB6025
:102B34007B6A03F003039B000F2202FA03F3DB43D7
:102B4400FA681340FB607B68514A93421FD07B684C
:102B5400504A934219D07B684F4A934213D07B6802
:102B64004E4A93420DD07B684D4A934207D07B680E
:102B74004C4A934201D105230AE0062308E00423CA
:102B840006E0032304E0022302E0012300E0002323
:102B94007A6A02F0030292009340FA681343FB60DE
:102BA4003A497B6A9B080233FA6841F823203B6860
:102BB4005B6803F48033002B06D03B4B1A683A4918
:102BC400BB6913430B6006E0374B1A68BB69DB43F0
:102BD400354913400B603B685B6803F40033002BFA
:102BE40006D0314B5A683049BB6913434B6006E049
:102BF4002D4B5A68BB69DB432B4913404B603B6840
:102C04005B6803F48013002B06D0274B9A6826498F
:102C1400BB6913438B6006E0234B9A68BB69DB43B3
:102C2400214913408B603B685B6803F40013002B5D
:102C340006D01D4BDA681C49BB691343CB6006E020
:102C4400194BDA68BB69DB4317491340CB607B6AD5
:102C540001337B623B681A687B6A22FA03F3002B18
:102C64007FF4C4AE00BF2C37BD4680BC704700BFA4
:102C7400000021100000111000001210000031109B
:102C84000000321000002210001002400000014039
:102C940000080140000C01400010014000140140F4
:102CA40000180140001C01400004014080B485B0BC
:102CB40000AF78600B467B807B689A687B88134002
:102CC400002B02D00123FB7301E00023FB73FB7B89
:102CD40018461437BD4680BC704780B483B000AF3B
:102CE40078600B467B8013467B707B78002B03D087
:102CF4007A887B681A6103E07B881A047B681A610E
:102D040000BF0C37BD4680BC7047000080B584B05E
:102D140000AF78607B68002B01D101231FE17B6841
:102D240093F83D30DBB2002B06D17B68002283F898
:102D34003C207868FDF700FC7B68242283F83D2062
:102D44007B681B681A687B681B6822F001021A60A2
:102D54007B681B681A687B681B6842F400421A602F
:102D64007B681B681A687B681B6822F400421A603F
:102D740000F0DAFCF8607B685B687B4A934207D812
:102D8400FB687A4A934294BF01230023DBB206E036
:102D9400FB68774A934294BF01230023DBB2002BE4
:102DA40001D00123DBE0FB68724AA2FB03239B0CE6
:102DB400BB607B681B685B6823F03F017B681B6812
:102DC400BA680A435A607B681B681B6A23F03F0198
:102DD4007B685B68644A934202D8BB68013309E0AC
:102DE400BB684FF4967202FB03F3634AA2FB03230E
:102DF4009B0901337A6812680B4313627B681B6872
:102E0400DB6923F44F4222F0FF027B685B6856497A
:102E14008B420DD8FB68591E7B685B685B00B1FB75
:102E2400F3F30133C3F30B03042B38BF04234FE044
:102E34007B689B68002B11D1FB68581E7B6859681E
:102E44000B465B000B44B0FBF3F30133C3F30B03FA
:102E5400002B0CBF01230023DBB212E0FB68581ED9
:102E64007B6859680B469B000B4499000B44B0FBEC
:102E7400F3F30133C3F30B03002B0CBF0123002333
:102E8400DBB2002B01D0012322E07B689B68002B7E
:102E94000ED1FB68581E7B6859680B465B000B44D7
:102EA400B0FBF3F30133C3F30B0343F400430FE02C
:102EB400FB68581E7B6859680B469B000B449900BD
:102EC4000B44B0FBF3F30133C3F30B0343F440436C
:102ED400796809681343CB617B681B681B6823F01E
:102EE400C0017B68DA697B681B6A1A437B681B68CC
:102EF4000A431A607B681B689B6823F4034323F02E
:102F0400FF037A6811697A68D26811437A68126893
:102F14000B4393607B681B68DB6823F0FF017B68CD
:102F24005A697B689B691A437B681B680A43DA60A9
:102F34007B681B681A687B681B6842F001021A6090
:102F44007B6800221A647B68202283F83D207B681A
:102F540000221A637B68002283F83E20002318466F
:102F64001037BD4680BD00BFA08601007F841E00CF
:102F7400FF083D0083DE1B43D34D621080B586B04D
:102F840000AF78607B68002B01D101236CE27B6881
:102F94001B6803F00103002B00F08780924B5B68F1
:102FA40003F00C03042B0CD08F4B5B6803F00C0371
:102FB400082B12D18C4B5B6803F48033B3F5803F4C
:102FC4000BD1894B1B6803F40033002B6CD07B6856
:102FD4005B68002B68D1012346E27B685B68B3F52C
:102FE400803F06D1804B1B687F4A43F480331360D3
:102FF4002EE07B685B68002B0CD17B4B1B687A4A04
:1030040023F480331360784B1B68774A23F48023BE
:1030140013601DE07B685B68B3F5A02F0CD1724B85
:103024001B68714A43F4802313606F4B1B686E4A1C
:1030340043F4803313600BE06B4B1B686A4A23F440
:1030440080331360684B1B68674A23F48023136042
:103054007B685B68002B13D0FEF7AEFE386108E096
:10306400FEF7AAFE02463B69D31A642B01D9032357
:10307400FAE15D4B1B6803F40033002BF0D014E03D
:10308400FEF79AFE386108E0FEF796FE02463B69B9
:10309400D31A642B01D90323E6E1534B1B6803F4D1
:1030A4000033002BF0D100E000BF7B681B6803F005
:1030B4000203002B63D04C4B5B6803F00C03002B22
:1030C4000BD0494B5B6803F00C03082B1CD1464B17
:1030D4005B6803F48033002B16D1434B1B6803F069
:1030E4000203002B05D07B681B69012B01D001234F
:1030F400BAE13D4B1B6823F0F8027B685B69DB0097
:10310400394913430B603AE07B681B69002B20D0DC
:10311400364B01221A60FEF74FFE386108E0FEF7D5
:103124004BFE02463B69D31A022B01D903239BE1D0
:103134002D4B1B6803F00203002BF0D02A4B1B68B5
:1031440023F0F8027B685B69DB00274913430B60BB
:1031540015E0264B00221A60FEF72EFE386108E0C7
:10316400FEF72AFE02463B69D31A022B01D9032338
:103174007AE11D4B1B6803F00203002BF0D17B683E
:103184001B6803F00803002B3AD07B689B69002B73
:1031940019D0174B01221A60FEF70EFE386108E0C1
:1031A400FEF70AFE02463B69D31A022B01D9032318
:1031B4005AE10D4B5B6A03F00203002BF0D00120AF
:1031C40000F0C6FA1CE00A4B00221A60FEF7F4FD78
:1031D40038610FE0FEF7F0FD02463B69D31A022B7B
:1031E40008D9032340E100BF00100240000042421E
:1031F400800442429E4B5B6A03F00203002BE9D138
:103204007B681B6803F00403002B00F0A6800023F6
:10321400FB75974BDB6903F08053002B0DD1944B66
:10322400DB69934A43F08053D361914BDB6903F02C
:103234008053BB60BB680123FB758E4B1B6803F492
:103244008073002B18D18B4B1B688A4A43F480731C
:103254001360FEF7B1FD386108E0FEF7ADFD0246EC
:103264003B69D31A642B01D90323FDE0814B1B680E
:1032740003F48073002BF0D07B68DB68012B06D14C
:103284007B4B1B6A7A4A43F0010313622DE07B688F
:10329400DB68002B0CD1764B1B6A754A23F00103C3
:1032A4001362734B1B6A724A23F0040313621CE01B
:1032B4007B68DB68052B0CD16D4B1B6A6C4A43F0B1
:1032C400040313626A4B1B6A694A43F001031362E5
:1032D4000BE0674B1B6A664A23F001031362644BDD
:1032E4001B6A634A23F0040313627B68DB68002BC8
:1032F40015D0FEF761FD38610AE0FEF75DFD024678
:103304003B69D31A41F28832934201D90323ABE0DB
:10331400574B1B6A03F00203002BEED014E0FEF7B8
:103324004BFD38610AE0FEF747FD02463B69D31ABC
:1033340041F28832934201D9032395E04C4B1B6A36
:1033440003F00203002BEED1FB7D012B05D1484B8A
:10335400DB69474A23F08053D3617B68DB69002B28
:1033640000F08180424B5B6803F00C03082B61D0B2
:103374007B68DB69022B46D13F4B00221A60FEF7C3
:103384001BFD386108E0FEF717FD02463B69D31ABE
:10339400022B01D9032367E0354B1B6803F000734C
:1033A400002BF0D17B681B6AB3F5803F08D1304B0A
:1033B4005B6823F400327B689B682D4913434B60A0
:1033C4002B4B5B6823F474127B68196A7B685B6A15
:1033D4000B43274913434B60274B01221A60FEF726
:1033E400EBFC386108E0FEF7E7FC02463B69D31AC0
:1033F400022B01D9032337E01D4B1B6803F0007334
:10340400002BF0D02FE01C4B00221A60FEF7D4FCF6
:10341400386108E0FEF7D0FC02463B69D31A022B60
:1034240001D9032320E0124B1B6803F00073002B27
:10343400F0D118E07B68DB69012B01D1012313E093
:103444000B4B5B68FB60FB6803F480327B681B6A90
:103454009A4206D1FB6803F470127B685B6A9A4255
:1034640001D0012300E0002318461837BD4680BD73
:1034740000100240007000406000424280B584B0F9
:1034840000AF786039607B68002B01D10123D0E064
:103494006A4B1B6803F007033A689A4210D9674BDA
:1034A4001B6823F0070265493B6813430B60634BB9
:1034B4001B6803F007033A689A4201D00123B8E07D
:1034C4007B681B6803F00203002B20D07B681B6819
:1034D40003F00403002B05D0594B5B68584A43F4AE
:1034E400E06353607B681B6803F00803002B05D07E
:1034F400534B5B68524A43F460535360504B5B68D0
:1035040023F0F0027B689B684D4913434B607B6852
:103514001B6803F00103002B40D07B685B68012B20
:1035240007D1474B1B6803F40033002B15D101234B
:103534007FE07B685B68022B07D1414B1B6803F07B
:103544000073002B09D1012373E03D4B1B6803F08A
:103554000203002B01D101236BE0394B5B6823F09C
:1035640003027B685B68364913434B60FEF724FC17
:10357400F8600AE0FEF720FC0246FB68D31A41F229
:103584008832934201D9032353E02D4B5B6803F047
:103594000C027B685B689B009A42EBD1274B1B684B
:1035A40003F007033A689A4210D2244B1B6823F0B5
:1035B400070222493B6813430B60204B1B6803F04E
:1035C40007033A689A4201D0012332E07B681B6802
:1035D40003F00403002B08D0194B5B6823F4E0626A
:1035E4007B68DB68164913434B607B681B6803F0F8
:1035F4000803002B09D0124B5B6823F460527B68EC
:103604001B69DB000E4913434B6000F021F80146AF
:103614000B4B5B681B0903F00F030A4AD35C21FAC6
:1036240003F3094A1360094B1B681846FEF782FB33
:10363400002318461037BD4680BD00BF002002405D
:1036440000100240F841000800000020080000209B
:1036540090B48AB000AF2A4B3C1D0FCB84E80F0016
:10366400284B1B883B800023FB610023BB610023A4
:103674007B6200237B6100233B62234B5B68FB611D
:10368400FB6903F00C03042B02D0082B03D02DE0BC
:103694001E4B3B622DE0FB699B0C03F00F0307F10B
:1036A4002802134413F8243C7B61FB6903F4803340
:1036B400002B13D0144B5B685B0C03F0010307F180
:1036C4002802134413F8283CBB617B690F4A02FBB0
:1036D40003F2BB69B2FBF3F37B6204E07B690C4A3F
:1036E40002FB03F37B627B6A3B6202E0074B3B62B3
:1036F40000BF3B6A18462837BD4690BC704700BFE0
:10370400E4410008F44100080010024000127A006D
:1037140000093D0080B400AF024B1B681846BD464B
:1037240080BC70470000002080B500AFFFF7F2FFB7
:103734000146054B5B681B0A03F00703034AD35C8D
:1037440021FA03F3184680BD001002400842000825
:1037540080B485B000AF78600A4B1B680A4AA2FBAC
:1037640003235B0A7A6802FB03F3FB6000BFFB6878
:103774005A1EFA60002BF9D100BF1437BD4680BC35
:10378400704700BF00000020D34D621080B586B0A2
:1037940000AF786000233B610023FB607B681B68FB
:1037A40003F00103002B7DD00023FB754F4BDB6935
:1037B40003F08053002B0DD14C4BDB694B4A43F093
:1037C4008053D361494BDB6903F08053BB60BB6812
:1037D4000123FB75464B1B6803F48073002B18D13F
:1037E400434B1B68424A43F480731360FEF7E4FAC8
:1037F400386108E0FEF7E0FA02463B69D31A642B0D
:1038040001D903236DE03A4B1B6803F48073002B4A
:10381400F0D0364B1B6A03F44073FB60FB68002B4B
:103824002ED07B685B6803F44073FA689A4227D011
:103834002E4B1B6A23F44073FB602E4B01221A604B
:103844002C4B00221A60294AFB681362FB6803F0C0
:103854000103002B14D0FEF7AFFA38610AE0FEF73B
:10386400ABFA02463B69D31A41F28832934201D93A
:10387400032336E01D4B1B6A03F00203002BEED03A
:103884001A4B1B6A23F440727B685B681749134325
:103894000B62FB7D012B05D1144BDB69134A23F02A
:1038A4008053D3617B681B6803F00203002B08D0AC
:1038B4000E4B5B6823F440427B689B680B491343BF
:1038C4004B607B681B6803F01003002B08D0074B88
:1038D4005B6823F480027B685B69044913434B6093
:1038E400002318461837BD4680BD00BF00100240B3
:1038F400007000404004424280B582B000AF78605E
:103904007B68002B01D1012376E07B685B6A002B86
:1039140008D17B685B68B3F5827F09D07B6800229D
:10392400DA6105E07B6800221A617B6800225A6133
:103934007B6800229A627B6893F85130DBB2002BDB
:1039440006D17B68002283F850207868FCF7F2FFE8
:103954007B68022283F851207B681B681A687B68A5
:103964001B6822F040021A607B685B6803F4827271
:103974007B689B6803F404431A437B68DB6803F4A5
:1039840000631A437B681B6903F002031A437B68D4
:103994005B6903F001031A437B689B6903F40073BA
:1039A4001A437B68DB6903F038031A437B681B6A9C
:1039B40003F0800342EA03017B689B6A03F400522C
:1039C4007B681B680A431A607B689B691A0C7B68D6
:1039D4001B6802F004025A607B681B68DA697B6822
:1039E4001B6822F40062DA617B6800225A657B68F6
:1039F400012283F85120002318460837BD4680BDB4
:103A040080B582B000AF78607B68002B01D10123C0
:103A140041E07B6893F83D30DBB2002B06D17B6834
:103A2400002283F83C207868FDF7EEF87B680222D8
:103A340083F83D207B681A687B6804331946104676
:103A440000F0ECF87B68012283F846207B680122B1
:103A540083F83E207B68012283F83F207B680122A3
:103A640083F840207B68012283F841207B6801228F
:103A740083F842207B68012283F843207B6801227B
:103A840083F844207B68012283F845207B68012267
:103A940083F83D20002318460837BD4680BD00004A
:103AA40080B584B000AFF860B9607A60FB6893F8C1
:103AB4003C30012B01D10223ACE0FB68012283F8E6
:103AC4003C207B680C2B00F29F8001A252F823F06B
:103AD400093B00080D3C00080D3C00080D3C0008A3
:103AE400493B00080D3C00080D3C00080D3C000853
:103AF4008B3B00080D3C00080D3C00080D3C000801
:103B0400CB3B0008FB681B68B968184600F000F955
:103B1400FB681B689A69FB681B6842F008029A619B
:103B2400FB681B689A69FB681B6822F004029A61AF
:103B3400FB681B689969BB681A69FB681B680A43C0
:103B44009A6162E0FB681B68B968184600F050F996
:103B5400FB681B689A69FB681B6842F400629A61FF
:103B6400FB681B689A69FB681B6822F480629A618F
:103B7400FB681B689969BB681B691A02FB681B68B0
:103B84000A439A6141E0FB681B68B968184600F073
:103B9400A3F9FB681B68DA69FB681B6842F008023A
:103BA400DA61FB681B68DA69FB681B6822F00402AF
:103BB400DA61FB681B68D969BB681A69FB681B6812
:103BC4000A43DA6121E0FB681B68B968184600F013
:103BD400F7F9FB681B68DA69FB681B6842F400624A
:103BE400DA61FB681B68DA69FB681B6822F480628F
:103BF400DA61FB681B68D969BB681B691A02FB6838
:103C04001B680A43DA6100E000BFFB68002283F806
:103C14003C20002318461037BD4680BD80B485B0D3
:103C240000AF786039607B681B68FB607B68334A4F
:103C3400934213D07B68324A93420FD07B68B3F12E
:103C4400804F0BD07B682F4A934207D07B682E4A63
:103C5400934203D07B682D4A934208D1FB6823F03A
:103C64007003FB603B685B68FA681343FB607B6826
:103C7400224A934213D07B68214A93420FD07B6837
:103C8400B3F1804F0BD07B681E4A934207D07B6808
:103C94001D4A934203D07B681C4A934208D1FB68B7
:103CA40023F44073FB603B68DB68FA681343FB60F2
:103CB400FB6823F080023B685B691343FB607B680D
:103CC400FA681A603B689A687B68DA623B681A682B
:103CD4007B689A627B68094A934203D07B68084AEE
:103CE400934203D13B681A697B681A637B6801229B
:103CF4005A6100BF1437BD4680BC7047002C014098
:103D0400003401400004004000080040000C004062
:103D140080B487B000AF786039607B681B6A23F099
:103D240001027B681A627B681B6A7B617B685B6843
:103D34003B617B689B69FB60FB6823F07003FB605D
:103D4400FB6823F00303FB603B681B68FA681343BA
:103D5400FB607B6923F002037B613B689B687A69A3
:103D640013437B617B68204A934203D07B681F4ADC
:103D740093420CD17B6923F008037B613B68DB68C9
:103D84007A6913437B617B6923F004037B617B685D
:103D9400154A934203D07B68144A934211D13B697C
:103DA40023F480733B613B6923F400733B613B68FC
:103DB4005B693A6913433B613B689B693A69134306
:103DC4003B617B683A695A607B68FA689A613B6830
:103DD4005A687B685A637B687A691A6200BF1C3729
:103DE400BD4680BC704700BF002C01400034014038
:103DF40080B487B000AF786039607B681B6A23F0B9
:103E040010027B681A627B681B6A7B617B685B6853
:103E14003B617B689B69FB60FB6823F4E043FB60C8
:103E2400FB6823F44073FB603B681B681B02FA6861
:103E34001343FB607B6923F020037B613B689B6831
:103E44001B017A6913437B617B68214A934203D047
:103E54007B68204A93420DD17B6923F080037B6108
:103E64003B68DB681B017A6913437B617B6923F040
:103E740040037B617B68164A934203D07B68154AF2
:103E8400934213D13B6923F480633B613B6923F480
:103E940000633B613B685B699B003A6913433B6188
:103EA4003B689B699B003A6913433B617B683A69B1
:103EB4005A607B68FA689A613B685A687B689A63BF
:103EC4007B687A691A6200BF1C37BD4680BC7047A4
:103ED400002C01400034014080B487B000AF78600A
:103EE40039607B681B6A23F480727B681A627B6882
:103EF4001B6A7B617B685B683B617B68DB69FB6099
:103F0400FB6823F07003FB60FB6823F00303FB6092
:103F14003B681B68FA681343FB607B6923F40073F6
:103F24007B613B689B681B027A6913437B617B68F6
:103F3400214A934203D07B68204A93420DD17B6986
:103F440023F400637B613B68DB681B027A691343DB
:103F54007B617B6923F480637B617B68164A9342AF
:103F640003D07B68154A934213D13B6923F48053F1
:103F74003B613B6923F400533B613B685B691B0174
:103F84003A6913433B613B689B691B013A691343DC
:103F94003B617B683A695A607B68FA68DA613B681E
:103FA4005A687B68DA637B687A691A6200BF1C37D7
:103FB400BD4680BC704700BF002C01400034014066
:103FC40080B487B000AF786039607B681B6A23F4E3
:103FD40080527B681A627B681B6A3B617B685B6802
:103FE4007B617B68DB69FB60FB6823F4E043FB6077
:103FF400FB6823F44073FB603B681B681B02FA6890
:104004001343FB603B6923F400533B613B689B68AB
:104014001B033A6913433B617B68114A934203D003
:104024007B68104A934209D17B6923F480437B6106
:104034003B685B699B017A6913437B617B687A699E
:104044005A607B68FA68DA613B685A687B681A646C
:104054007B683A691A6200BF1C37BD4680BC704752
:10406400002C01400034014080B485B000AF78607A
:1040740039607B6893F83C30012B01D1022350E076
:104084007B68012283F83C207B68022283F83D2070
:104094007B681B685B68FB607B681B689B68BB6014
:1040A400FB6823F07003FB603B681B68FA681343EA
:1040B400FB607B681B68FA685A607B681B681B4A54
:1040C400934218D07B681B68194A934213D07B68CB
:1040D4001B68B3F1804F0ED07B681B68154A93426E
:1040E40009D07B681B68144A934204D07B681B6820
:1040F400124A93420CD1BB6823F08003BB603B6837
:104104005B68BA681343BB607B681B68BA689A60D3
:104114007B68012283F83D207B68002283F83C20E1
:10412400002318461437BD4680BC7047002C01405C
:10413400003401400004004000080040000C00402E
:1041440070B500250C4E0D4CA41BA410A54209D13A
:1041540000F022F800250A4E0A4CA41BA410A54224
:1041640005D170BD56F8253098470135EEE756F86D
:10417400253098470135F2E7C0580008C0580008B8
:10418400C0580008C458000803460244934200D1B2
:10419400704703F8011BF9E7F8B500BFF8BC08BC89
:1041A4009E467047F8B500BFF8BC08BC9E467047F1
:1041B40054656D70657261747572653A0000000033
:1041C4004169723A000000005265636F7264696E5F
:1041D400673A000043483100434832004348330003
:1041E40002030405060708090A0B0C0D0E0F101034
:1041F40001020000000000000000000001020304AE
:104204000607080900000000010203040000000082
:104214000000000000000000000004040404040482
:104224000004000000140A0A00000000000000005E
:10423400000014143F140A3F0A0A000000041E156B
:1042440005060C14150F0400000012150D0A142C99
:104254002A1200000000040A0A1E1515093600007F
:10426400000202010000000000000000002010080D
:1042740008080808081020000002040808080808B4
:104284000804020000000004150E0E1504000000CE
:1042940000000404041F04040400000000000000E3
:1042A400000000000002020100000000001F0000E6
:1042B40000000000000000000000000000020000F8
:1042C40000100808080404020202010000000E1194
:1042D40011111111110E000000000406040404045D
:1042E400040E000000000E1111080402011F00005A
:1042F40000000E11100C1010110E00000000080C2C
:104304000A0A091E0818000000001F01010F1010FE
:10431400110E000000000E09010F1111110E000012
:1043240000001F09080404040404000000000E1126
:10433400110E1111110E000000000E1111111E10AA
:10434400120E000000000000040000000004000041
:104354000000000000040000000404000020100815
:104364000402040810200000000000001F00001FC9
:1043740000000000000204081020100804020000DD
:1043840000000E11110804040004000000000E11C6
:104394001915151D011E0000000004040C0A0A1E54
:1043A4001233000000000F12120E1212120F00003E
:1043B40000001E1101010101110E000000000F1286
:1043C40012121212120F000000001F120A0E0A022B
:1043D400121F000000001F120A0E0A02020700004A
:1043E40000001C1201013911120C000000003312EC
:1043F400121E12121233000000001F0404040404ED
:10440400041F000000003E08080808080809070007
:10441400000037120A060A0A1237000000000702D9
:1044240002020202223F000000001B1B1B1B151589
:104434001515000000003B1216161A1A1217000078
:1044440000000E1111111111110E000000000F12C5
:10445400120E02020207000000000E1111111117C2
:10446400190E180000000F12120E0A121237000063
:1044740000001E1101060810110F000000001F1596
:1044840004040404040E0000000033121212121279
:10449400120C000000003312120A0A0C040400007B
:1044A40000001515150E0A0A0A0A000000001B0A6E
:1044B4000A04040A0A1B000000001B0A0A0404047C
:1044C400040E000000001F0908040402121F00006B
:1044D400001C04040404040404041C00000202027A
:1044E4000404080808100000000E0808080808085A
:1044F40008080E0000040A0000000000000000008C
:1045040000000000000000000000003F0004000064
:10451400000000000000000000000000000C121C5D
:10452400123C000000000302020E1212120E0000E0
:1045340000000000001C1202021C00000000181001
:10454400101C1212123C000000000000000C121E8D
:10455400021C000000003804041E0404041E0000B1
:1045640000000000003C120C021E221C000003028A
:10457400020E1212123700000000040000060404A8
:10458400040E000000000800000C080808080807D2
:1045940000000302023A0A0E12370000000007046A
:1045A40004040404041F000000000000000F15159B
:1045B4001515000000000000000F12121237000051
:1045C40000000000000C1212120C00000000000099
:1045D400000F1212120E020700000000001C12123B
:1045E400121C103800000000001B06020207000025
:1045F40000000000001E020C101E00000000000459
:10460400040E04040418000000000000001B121231
:10461400123C0000000000000037120A0C040000E5
:10462400000000000015150E0A0A0000000000003A
:10463400001B0A040A1B0000000000000037120AD5
:104644000C04040300000000001E0804041E000003
:1046540000180808080408080808180008080808CA
:1046640008080808080808080006040404080404E4
:1046740004040600022518000000000000000000E9
:104684000000000000000000000000000000000026
:1046940000000008080808080808000018180000AE
:1046A40000486C241200000000000000000000001C
:1046B4000000002424247F1212127F121212000020
:1046C4000000081C2A2A0A0C1828282A2A1C080870
:1046D40000000022251515152A58545454220000B0
:1046E4000000000C1212120A76252911916E0000A6
:1046F40000060604030000000000000000000000A3
:104704000040201010080808080808101020400075
:104714000002040808101010101010080804020009
:104724000000000008086B1C1C6B08080000000057
:1047340000000000080808087F08080808000000B6
:104744000000000000000000000000000606040352
:104754000000000000000000FE0000000000000057
:104764000000000000000000000000000606000039
:1047740000008040402020101008080404020200B9
:1047840000000018244242424242424224180000DF
:10479400000000080E08080808080808083E000081
:1047A4000000003C4242422020100804427E0000E7
:1047B4000000003C4242201820404042221C0000DD
:1047C400000000203028242422227E2020780000AB
:1047D4000000007E0202021A26404042221C000011
:1047E400000000382402021A264242422418000023
:1047F4000000007E222210100808080808080000A3
:104804000000003C4242422418244242423C000040
:10481400000000182442424264584040241C000016
:104824000000000000001818000000001818000024
:104834000000000000000008000000000008080458
:10484400000000402010080402040810204000006A
:104854000000000000007F0000007F000000000056
:104864000000000204081020402010080402000088
:104874000000003C4242464020101000181800007E
:104884000000001C225A555555552D42221C00008B
:104894000000000808181414243C224242E70000D7
:1048A4000000001F2222221E22424242221F000038
:1048B4000000007C4242010101010142221C00006F
:1048C4000000001F2242424242424242221F000094
:1048D4000000003F4212121E12120242423F000028
:1048E4000000003F4212121E1212020202070000D0
:1048F4000000003C2222010101712122221C00003F
:10490400000000E7424242427E42424242E7000047
:104914000000003E0808080808080808083E0000CF
:104924000000007C10101010101010101010110F47
:104934000000007722120A0E0A12122222770000C7
:10494400000000070202020202020202427F00008B
:1049540000000077363636362A2A2A2A2A6B0000C7
:10496400000000E346464A4A52525262624700003F
:104974000000001C2241414141414141221C0000F0
:104984000000003F424242423E020202020700008F
:104994000000001C2241414141414D53321C600042
:1049A4000000003F4242423E1212222242C700004F
:1049B4000000007C4242020418204042423E0000B3
:1049C4000000007F4908080808080808081C0000BF
:1049D400000000E74242424242424242423C00005E
:1049E400000000E74242222424141418080800009E
:1049F4000000006B494949495555362222220000DE
:104A0400000000E7422424181818242442E7000078
:104A1400000000772222141408080808081C00006B
:104A24000000007E2120101008040442423F0000D0
:104A34000078080808080808080808080808780022
:104A4400000002020404080808101020202040403E
:104A5400001E1010101010101010101010101E0056
:104A640000384400000000000000000000000000C6
:104A7400000000000000000000000000000000FF33
:104A84000006080000000000000000000000000014
:104A9400000000000000003C4278444242FC000058
:104AA400000000030202021A26424242261A0000B3
:104AB40000000000000000384402020244380000F4
:104AC40000000060404040784442424264D8000004
:104AD400000000000000003C427E0202423C000054
:104AE400000000F08808087E08080808083E000056
:104AF400000000000000007C22221C023C42423CD8
:104B0400000000030202023A4642424242E7000029
:104B14000000000C0C00000E08080808083E000005
:104B24000000003030000038202020202020221EE9
:104B34000000000302020272120A16122277000019
:104B44000000000E0808080808080808083E0000CD
:104B5400000000000000007F9292929292B7000041
:104B6400000000000000003B4642424242E70000D1
:104B7400000000000000003C42424242423C00006F
:104B8400000000000000001B26424242221E0207D1
:104B9400000000000000007844424242447840E0B3
:104BA40000000000000000774C040404041F00000F
:104BB400000000000000007C42023C40423E000035
:104BC400000000000008083E08080808083000003B
:104BD40000000000000000634242424262DC000028
:104BE40000000000000000E742242414080800002C
:104BF40000000000000000EB494955552222000046
:104C0400000000000000007624181818246E00002C
:104C140000000000000000E74224241418080807DC
:104C2400000000000000007E22100808447E0000FE
:104C340000C0202020202010202020202020C00080
:104C44001010101010101010101010101010101060
:104C540000060808080808100808080808080600DC
:104C64000C32C20000000000000000000000000040
:104C7400EFBF000027FC140414A481104208404034
:104C8400104017FC2040E0E0215022482C462040F0
:104C94000040EFBF11041124112411241124FD2418
:104CA400112411241124112411241D24E12442244B
:104CB40002040404EFBF0200010000007FFC0100B5
:104CC400010001003FF821082108210821082128BA
:104CD400211001000100C8AB000000000180024067
:104CE4000430180860061FF90100010001003FF8B4
:104CF4000100010001007FFEEFBF00000000002062
:104D04003E20007C002200227F2210221022122248
:104D14001222224223423D82009CEFBF0000010088
:104D240001001FF0610C410441047FFC4104410473
:104D340041047FFC01000102010201FCEFBF0000FD
:104D440000003FF8001000600080010000807FFE3A
:104D54000040004000200020002018400780EFBFE2
:104D640010201020102013FEFC201020102015FC11
:104D740018843088D04810501020105051882606CE
:104D8400EFBF01000120011001107FFC03800540EA
:104D9400054009201110210841048102010001008D
:104DA4000100EFBF02000200FFFE040004000FF048
:104DB400081018102FF0481088100FF00810081071
:104DC40008500820EFBF00007BF84A08520853F847
:104DD400620852084BF84A444A486A30522042104A
:104DE400428843064200EFBF0080048004800840EC
:104DF40008401020201042088206040004400820C5
:104E040010203FF010100000CBBE00003FF8000857
:104E140000087FE8000800081F88108810881088A0
:104E240010881F88108800280010EFBF00800080C1
:104E3400FC8004FC050449082A401440104028A0C2
:104E440024A045108110020804040802D3AD000018
:104E54002080133C122402240224F224122412245B
:104E640012B4132812201020282047FE0000EFBFA0
:104E74000900090011FC32045448995011481244A5
:104E840014441140108002005104511290120FF08A
:104E9400EFBF00000020102013FE202026244A2407
:104EA4007A241224222423FC7C2000220422782247
:104EB400003CC9AB0000000004000FF010202020CB
:104EC4007FFC20842084208420843FF8200020025A
:104ED40020021FFEEFBF00000000204023FE204000
:104EE40079FC220423FC220423FC220423FC3A043C
:104EF40065FA01980204EFBF0000010001007FFE83
:104F040002200410040808043FFC04420440044046
:104F1400044208421042607EEFBF00000000207E81
:104F24003E804880488048FE48827F8208820C8206
:104F340014FA12842280218040FEEFBF000000009A
:104F44007F842208223022C0220222047FC8223019
:104F540022C222022204220822304040EFBF000075
:104F640000007FFE00000FF01110111011105112FB
:104F74005FF25112511251124FF240027FFCD4B22F
:104F8400000000007FFE47E24812481247E24FF259
:104F9400501250125112511242924472580A3FFC5C
:104FA400CDBC000000003FFE440247F24C22536295
:104FB400408243625E1A41824062430240C2402200
:104FC4003FFCC6AC000000402040204020403FFE93
:104FD4002000200020003FE020102010201020108E
:104FE40040104010EFBF000000003FFC20042004EC
:104FF4003FFC200420041FF8244414481448144897
:105004000C5004407FFECABE000000003FFC0000BC
:10501400000000007FFE008008900888108810843B
:105024002084208240820780EFBF000000200820F7
:105034007FFE002000783F881108089009207FFE39
:10504400018003400D30310C4002EFBF000000101E
:10505400081004203FF8210421043FFC210421040A
:105064003FF801007FFE010001000100EFBF0000D6
:105074000100010001003FFC21042104210421045A
:10508400210421043FFC0100010001000100D3A21E
:105094000000000008207FFE0820092001003FF8DE
:1050A4002108210821081FF4014002200C10700E71
:1050B400EFBF00000100010000803F7C08100810D1
:1050C40004100420022002400180018002601C18A8
:1050D400E006EFBF00000000102011FE22022202B1
:1050E40049FC5800300013FE2528792401240D249E
:1050F400722202A2EFBF00000000018002400430CF
:10510400180860061FF800001FF82004200420047B
:10511400200420041FF8EFBF0000010001007FFEFF
:1051240000003FF820083FF83FF8400647C24824F3
:10513400082008221022603EEFBF0000000000801B
:105144003FFE44105FFC4410441043F040005FF8FD
:105154004408423041C04360BC1EEFBF0000000061
:1051640067C2145205520552C552255205520552C2
:1051740015521752228222424442483EEFBF000099
:1051840000002014101417FE00120010601013F019
:10519400109010901090149214EA1F0A0006EFBFAA
:1051A4000000000019FE7202120212027DFC1800B7
:1051B4001BFE3420502053FE10201020102013FE1C
:1051C400EFBF0000000000803FFE400047FC4208A3
:1051D400413040C05FFE404240424044404840406D
:1051E4004440EFBF0000000023FE122202FA022214
:1051F400E22212FE1272128A128A128A16BA1A4213
:105204001202040EEFBF0000010001041108090896
:10521400091009207FFE0440044004400440084271
:1052240008421042607CEFBF0000000048FE4900C5
:10523400490049007EFE418241447944452845287D
:105244004510452846440382C8A8000010001000F9
:1052540013FC7D04110419041884348850485050F8
:1052640010201050108813041402EFBF0000000037
:105274003F7C204020403E40227E2244224422445F
:105284003E8420842084408441044204EFBF000013
:105294003FF8200820083FF8241022202FF822206D
:1052A40022203FFC22204220442084200820C4BB2A
:1052B40004407FFC04401FF010101FF010101FF07A
:1052C4000400FFFE11103FF8D11611501120010007
:1052D400EFBF2080108010FE0100FE0021FC20247E
:1052E4003C2424A024A024BC24A024A04560553E32
:1052F4008A00D7AA202020202020FDFC40205040F6
:1053040093FEFC40108011FC1C04F08850501020C7
:1053140010101010EFBF00007FFC082008200820A8
:1053240008200820FFFE082008200820082010205C
:10533400102020204020D4B4000027FE1420144064
:1053440085FC450445FC150415FC2524E42024A80B
:1053540029242A2230A00040D2BA0080204017FE1F
:1053640011208120423C4244166412942348E248AE
:1053740022302220225022880306EFBF0FE00820AB
:1053840008200FE0082008200FE000007EFC428483
:1053940042847EFC428442847EFC4284EFBF00004F
:1053A4007FFC40044004421452944A54442444244C
:1053B4004A544A5452946104400440144008D5BEEF
:1053C4001020082008207E20003E04204420442091
:1053D40025FC290429040F04F104410401FC0104FF
:1053E400EFBF10401020102013FEFA0214441040A6
:1053F4001BFE3088D088110810D01020105050881F
:105404002304EFBF201020103B7C211441FE7A14AA
:10541400A27C2710F97C251025FE22102A103500C5
:1054240028FE0000D0A310401020102011FEFC0024
:10543400108831043A02548850889050105010203B
:10544400105010881306D7BC01404120212023FEB0
:10545400022016201BFC1220222023FCE220222002
:10546400222023FE22000200EFBF202020207820EB
:1054740049FC91247D24552455247DFC5524542035
:105484007C28542457FE45028C00EFBF11101110E4
:1054940017FC1110FC0013F8120817F81A0833F857
:1054A400D04017FC10A0111052082406EFBF0000D2
:1054B400000000001000000800080C7FFC044010ED
:1054C40001C8A002186042301832231812C3001415
:1054D400030004030C047FF0080F80080B407813CA
:1054E4006018332018631818831C19030818030064
:1054F400000300000000EFBF0000000000000410E3
:105504000C04180C04108C04108C04108C04108CE3
:1055140004D08C3F108C04108C04108C04108C0468
:10552400108C04108C04108C05F08C0E208C7820C8
:105534008C20408C00808C01000C02000C000000C8
:10554400EFBF000000000000003000001800001849
:105554000800001C1FFFE000180000182007FFF0DF
:105564000418200418200418200418200418200407
:1055740018200418200418200418200418E0041823
:1055840040001800001800000000EFBF00000000F9
:1055940000000000000000000018000018000018BF
:1055A400000018003FFFFE301806301806301806B9
:1055B4003018063018063FFFFE30180600180000A9
:1055C4001800001800001800001800000000000077
:1055D40000000000EFBF0000000000000000000019
:1055E4003800001C00000600FFFFFF060030060024
:1055F400300300600300600180C000C18000E3004C
:10560400003600001C0000770003C1E01E003C606F
:105614000007000000000000000000000000EFBFD1
:105624000000000000000000000000004000032112
:10563400FF33398333118333019B33C19B33719B14
:1056440033199B33019B33019B33119B3319B333C0
:10565400303033306C0330C6036383032E01BE0045
:105664000000000000000000EFBF00000000000088
:105674000000000000004000D83000CE1800C21C1A
:1056840000C001FFFF0000C0F800C01800C019FFEF
:10569400C01818401818601918601B18611E1831BA
:1056A4001C1FB139F01910000F00000000000000A9
:1056B40000000000EFBF000000000006000000032F
:1056C40000000000C0000001C0C0000107C00001CC
:1056D400FF00021FFE0007F01C0007C070000F004F
:1056E400E0000E03F0001C0FF0003C0F70003C00C3
:1056F400E0001800C0000000C0000000C00000006E
:10570400600000002000000037000001FF00007F5F
:10571400F80007F830001F8030000080300000C01F
:105724003000006060000018E000000FC0000006B8
:10573400000000000000EFBF0000000000000000B7
:10574400000000C0000000E0002001B800703FF835
:105754000061FFC000C3030001C60600038C0600FD
:1057640003080C0006080C000E18183F1E101BF34B
:105774001F903F0700803C1C0190707C019060FEEC
:1057840001A0C3F801A00FD803A0081803600018F3
:105794000340001803C00018038000180300001819
:1057A400000000180000001000000030000000306D
:1057B4000000000000000000EFBF00000000000037
:1057C40000000000000000000000020C1008071F89
:1057D400F80403BFF00201BC300303EC3003015CA6
:1057E400600300D8600300D860038098620361B846
:1057F400430771B14306313243063376C3063A6434
:10580400C7063EECC0063E78C0063C3040067C70BD
:10581400000678E060067BFFF006F7C00006E400AF
:10582400000640000006000000060000007C0000A6
:105834008FF000007C0000000000EFBF00000000BB
:10584400000000000000000000003F0000007F8016
:1058540000000180000000C0000000C0000000CE75
:10586400038000CFFFC000DD41800FFE0007FFFC76
:10587400000C00F000180FC03E19FF40F311BC608B
:1058840083307FE003B1FE200333802003700030B7
:10589400036000100360001807C0000C07C0000478
:1058A4000780000201000003000000010000000066
:0C58B400000000000000000000000000E8
:0458C00009020008D1
:0458C400E5010008F2
:1058C8000024F400FFFF00001000000001000000A9
:0400000508000D0DD5
:00000001FF
