Archive member included to satisfy reference by file (symbol)

c:/st/stm32cubeide_1.5.0/stm32cubeide/plugins/com.st.stm32cube.ide.mcu.externaltools.gnu-tools-for-stm32.7-2018-q2-update.win32_1.5.0.202011040924/tools/bin/../lib/gcc/arm-none-eabi/7.3.1/../../../../arm-none-eabi/lib/thumb/v7-m\libc_nano.a(lib_a-errno.o)
                              Core/Src/syscalls.o (__errno)
c:/st/stm32cubeide_1.5.0/stm32cubeide/plugins/com.st.stm32cube.ide.mcu.externaltools.gnu-tools-for-stm32.7-2018-q2-update.win32_1.5.0.202011040924/tools/bin/../lib/gcc/arm-none-eabi/7.3.1/../../../../arm-none-eabi/lib/thumb/v7-m\libc_nano.a(lib_a-exit.o)
                              c:/st/stm32cubeide_1.5.0/stm32cubeide/plugins/com.st.stm32cube.ide.mcu.externaltools.gnu-tools-for-stm32.7-2018-q2-update.win32_1.5.0.202011040924/tools/bin/../lib/gcc/arm-none-eabi/7.3.1/../../../../arm-none-eabi/lib/thumb/v7-m/crt0.o (exit)
c:/st/stm32cubeide_1.5.0/stm32cubeide/plugins/com.st.stm32cube.ide.mcu.externaltools.gnu-tools-for-stm32.7-2018-q2-update.win32_1.5.0.202011040924/tools/bin/../lib/gcc/arm-none-eabi/7.3.1/../../../../arm-none-eabi/lib/thumb/v7-m\libc_nano.a(lib_a-impure.o)
                              c:/st/stm32cubeide_1.5.0/stm32cubeide/plugins/com.st.stm32cube.ide.mcu.externaltools.gnu-tools-for-stm32.7-2018-q2-update.win32_1.5.0.202011040924/tools/bin/../lib/gcc/arm-none-eabi/7.3.1/../../../../arm-none-eabi/lib/thumb/v7-m\libc_nano.a(lib_a-exit.o) (_global_impure_ptr)
c:/st/stm32cubeide_1.5.0/stm32cubeide/plugins/com.st.stm32cube.ide.mcu.externaltools.gnu-tools-for-stm32.7-2018-q2-update.win32_1.5.0.202011040924/tools/bin/../lib/gcc/arm-none-eabi/7.3.1/../../../../arm-none-eabi/lib/thumb/v7-m\libc_nano.a(lib_a-init.o)
                              c:/st/stm32cubeide_1.5.0/stm32cubeide/plugins/com.st.stm32cube.ide.mcu.externaltools.gnu-tools-for-stm32.7-2018-q2-update.win32_1.5.0.202011040924/tools/bin/../lib/gcc/arm-none-eabi/7.3.1/../../../../arm-none-eabi/lib/thumb/v7-m/crt0.o (__libc_init_array)
c:/st/stm32cubeide_1.5.0/stm32cubeide/plugins/com.st.stm32cube.ide.mcu.externaltools.gnu-tools-for-stm32.7-2018-q2-update.win32_1.5.0.202011040924/tools/bin/../lib/gcc/arm-none-eabi/7.3.1/../../../../arm-none-eabi/lib/thumb/v7-m\libc_nano.a(lib_a-memset.o)
                              c:/st/stm32cubeide_1.5.0/stm32cubeide/plugins/com.st.stm32cube.ide.mcu.externaltools.gnu-tools-for-stm32.7-2018-q2-update.win32_1.5.0.202011040924/tools/bin/../lib/gcc/arm-none-eabi/7.3.1/../../../../arm-none-eabi/lib/thumb/v7-m/crt0.o (memset)
c:/st/stm32cubeide_1.5.0/stm32cubeide/plugins/com.st.stm32cube.ide.mcu.externaltools.gnu-tools-for-stm32.7-2018-q2-update.win32_1.5.0.202011040924/tools/bin/../lib/gcc/arm-none-eabi/7.3.1/../../../../arm-none-eabi/lib/thumb/v7-m\libc_nano.a(lib_a-strlen.o)
                              Core/user/TFT/gui.o (strlen)
c:/st/stm32cubeide_1.5.0/stm32cubeide/plugins/com.st.stm32cube.ide.mcu.externaltools.gnu-tools-for-stm32.7-2018-q2-update.win32_1.5.0.202011040924/tools/bin/../lib/gcc/arm-none-eabi/7.3.1/thumb/v7-m\libgcc.a(_arm_addsubsf3.o)
                              Core/user/AT24C02/24CXX.o (__aeabi_i2f)
c:/st/stm32cubeide_1.5.0/stm32cubeide/plugins/com.st.stm32cube.ide.mcu.externaltools.gnu-tools-for-stm32.7-2018-q2-update.win32_1.5.0.202011040924/tools/bin/../lib/gcc/arm-none-eabi/7.3.1/thumb/v7-m\libgcc.a(_arm_fixsfsi.o)
                              Core/user/AT24C02/24CXX.o (__aeabi_f2iz)

Allocating common symbols
Common symbol       size              file

hi2c1               0x54              Core/Src/i2c.o
uwTick              0x4               Drivers/STM32F1xx_HAL_Driver/Src/stm32f1xx_hal.o
pFlash              0x20              Drivers/STM32F1xx_HAL_Driver/Src/stm32f1xx_hal_flash.o
htim3               0x48              Core/Src/tim.o
hadc1               0x30              Core/Src/adc.o
hdma_adc1           0x44              Core/Src/adc.o
lcddev              0xe               Core/user/TFT/lcd.o
hspi1               0x58              Core/Src/spi.o
htim2               0x48              Core/Src/tim.o
DeviceCode          0x2               Core/user/TFT/lcd.o

Discarded input sections

 .text          0x0000000000000000        0x0 c:/st/stm32cubeide_1.5.0/stm32cubeide/plugins/com.st.stm32cube.ide.mcu.externaltools.gnu-tools-for-stm32.7-2018-q2-update.win32_1.5.0.202011040924/tools/bin/../lib/gcc/arm-none-eabi/7.3.1/thumb/v7-m/crti.o
 .data          0x0000000000000000        0x0 c:/st/stm32cubeide_1.5.0/stm32cubeide/plugins/com.st.stm32cube.ide.mcu.externaltools.gnu-tools-for-stm32.7-2018-q2-update.win32_1.5.0.202011040924/tools/bin/../lib/gcc/arm-none-eabi/7.3.1/thumb/v7-m/crti.o
 .bss           0x0000000000000000        0x0 c:/st/stm32cubeide_1.5.0/stm32cubeide/plugins/com.st.stm32cube.ide.mcu.externaltools.gnu-tools-for-stm32.7-2018-q2-update.win32_1.5.0.202011040924/tools/bin/../lib/gcc/arm-none-eabi/7.3.1/thumb/v7-m/crti.o
 .data          0x0000000000000000        0x4 c:/st/stm32cubeide_1.5.0/stm32cubeide/plugins/com.st.stm32cube.ide.mcu.externaltools.gnu-tools-for-stm32.7-2018-q2-update.win32_1.5.0.202011040924/tools/bin/../lib/gcc/arm-none-eabi/7.3.1/thumb/v7-m/crtbegin.o
 .text          0x0000000000000000       0x74 c:/st/stm32cubeide_1.5.0/stm32cubeide/plugins/com.st.stm32cube.ide.mcu.externaltools.gnu-tools-for-stm32.7-2018-q2-update.win32_1.5.0.202011040924/tools/bin/../lib/gcc/arm-none-eabi/7.3.1/../../../../arm-none-eabi/lib/thumb/v7-m/crt0.o
 .data          0x0000000000000000        0x0 c:/st/stm32cubeide_1.5.0/stm32cubeide/plugins/com.st.stm32cube.ide.mcu.externaltools.gnu-tools-for-stm32.7-2018-q2-update.win32_1.5.0.202011040924/tools/bin/../lib/gcc/arm-none-eabi/7.3.1/../../../../arm-none-eabi/lib/thumb/v7-m/crt0.o
 .bss           0x0000000000000000        0x0 c:/st/stm32cubeide_1.5.0/stm32cubeide/plugins/com.st.stm32cube.ide.mcu.externaltools.gnu-tools-for-stm32.7-2018-q2-update.win32_1.5.0.202011040924/tools/bin/../lib/gcc/arm-none-eabi/7.3.1/../../../../arm-none-eabi/lib/thumb/v7-m/crt0.o
 .ARM.extab     0x0000000000000000        0x0 c:/st/stm32cubeide_1.5.0/stm32cubeide/plugins/com.st.stm32cube.ide.mcu.externaltools.gnu-tools-for-stm32.7-2018-q2-update.win32_1.5.0.202011040924/tools/bin/../lib/gcc/arm-none-eabi/7.3.1/../../../../arm-none-eabi/lib/thumb/v7-m/crt0.o
 .ARM.exidx     0x0000000000000000        0x8 c:/st/stm32cubeide_1.5.0/stm32cubeide/plugins/com.st.stm32cube.ide.mcu.externaltools.gnu-tools-for-stm32.7-2018-q2-update.win32_1.5.0.202011040924/tools/bin/../lib/gcc/arm-none-eabi/7.3.1/../../../../arm-none-eabi/lib/thumb/v7-m/crt0.o
 .ARM.attributes
                0x0000000000000000       0x1b c:/st/stm32cubeide_1.5.0/stm32cubeide/plugins/com.st.stm32cube.ide.mcu.externaltools.gnu-tools-for-stm32.7-2018-q2-update.win32_1.5.0.202011040924/tools/bin/../lib/gcc/arm-none-eabi/7.3.1/../../../../arm-none-eabi/lib/thumb/v7-m/crt0.o
 .group         0x0000000000000000        0xc Core/Src/adc.o
 .group         0x0000000000000000        0xc Core/Src/adc.o
 .group         0x0000000000000000        0xc Core/Src/adc.o
 .group         0x0000000000000000        0xc Core/Src/adc.o
 .group         0x0000000000000000        0xc Core/Src/adc.o
 .group         0x0000000000000000        0xc Core/Src/adc.o
 .group         0x0000000000000000        0xc Core/Src/adc.o
Memory Configuration

Name             Origin             Length             Attributes
RAM              0x0000000020000000 0x000000000000c000 xrw
FLASH            0x0000000008000000 0x0000000000040000 xr
*default*        0x0000000000000000 0xffffffffffffffff

Linker script and memory map

LOAD c:/st/stm32cubeide_1.5.0/stm32cubeide/plugins/com.st.stm32cube.ide.mcu.externaltools.gnu-tools-for-stm32.7-2018-q2-update.win32_1.5.0.202011040924/tools/bin/../lib/gcc/arm-none-eabi/7.3.1/thumb/v7-m/crti.o
LOAD c:/st/stm32cubeide_1.5.0/stm32cubeide/plugins/com.st.stm32cube.ide.mcu.externaltools.gnu-tools-for-stm32.7-2018-q2-update.win32_1.5.0.202011040924/tools/bin/../lib/gcc/arm-none-eabi/7.3.1/thumb/v7-m/crtbegin.o
LOAD c:/st/stm32cubeide_1.5.0/stm32cubeide/plugins/com.st.stm32cube.ide.mcu.externaltools.gnu-tools-for-stm32.7-2018-q2-update.win32_1.5.0.202011040924/tools/bin/../lib/gcc/arm-none-eabi/7.3.1/../../../../arm-none-eabi/lib/thumb/v7-m/crt0.o
LOAD Core/Src/adc.o
LOAD Core/Src/dma.o
LOAD Core/Src/gpio.o
LOAD Core/Src/i2c.o
LOAD Core/Src/main.o
LOAD Core/Src/spi.o
LOAD Core/Src/stm32f1xx_hal_msp.o
LOAD Core/Src/stm32f1xx_it.o
LOAD Core/Src/syscalls.o
LOAD Core/Src/sysmem.o
LOAD Core/Src/system_stm32f1xx.o
LOAD Core/Src/tim.o
LOAD Core/Startup/startup_stm32f103rctx.o
LOAD Core/user/AT24C02/24CXX.o
LOAD Core/user/TFT/gui.o
LOAD Core/user/TFT/lcd.o
LOAD Core/user/TFT/my_spi.o
LOAD Core/user/TFT/test.o
LOAD Drivers/STM32F1xx_HAL_Driver/Src/stm32f1xx_hal.o
LOAD Drivers/STM32F1xx_HAL_Driver/Src/stm32f1xx_hal_adc.o
LOAD Drivers/STM32F1xx_HAL_Driver/Src/stm32f1xx_hal_adc_ex.o
LOAD Drivers/STM32F1xx_HAL_Driver/Src/stm32f1xx_hal_cortex.o
LOAD Drivers/STM32F1xx_HAL_Driver/Src/stm32f1xx_hal_dma.o
LOAD Drivers/STM32F1xx_HAL_Driver/Src/stm32f1xx_hal_exti.o
LOAD Drivers/STM32F1xx_HAL_Driver/Src/stm32f1xx_hal_flash.o
LOAD Drivers/STM32F1xx_HAL_Driver/Src/stm32f1xx_hal_flash_ex.o
LOAD Drivers/STM32F1xx_HAL_Driver/Src/stm32f1xx_hal_gpio.o
LOAD Drivers/STM32F1xx_HAL_Driver/Src/stm32f1xx_hal_gpio_ex.o
LOAD Drivers/STM32F1xx_HAL_Driver/Src/stm32f1xx_hal_i2c.o
LOAD Drivers/STM32F1xx_HAL_Driver/Src/stm32f1xx_hal_pwr.o
LOAD Drivers/STM32F1xx_HAL_Driver/Src/stm32f1xx_hal_rcc.o
LOAD Drivers/STM32F1xx_HAL_Driver/Src/stm32f1xx_hal_rcc_ex.o
LOAD Drivers/STM32F1xx_HAL_Driver/Src/stm32f1xx_hal_spi.o
LOAD Drivers/STM32F1xx_HAL_Driver/Src/stm32f1xx_hal_tim.o
LOAD Drivers/STM32F1xx_HAL_Driver/Src/stm32f1xx_hal_tim_ex.o
START GROUP
LOAD c:/st/stm32cubeide_1.5.0/stm32cubeide/plugins/com.st.stm32cube.ide.mcu.externaltools.gnu-tools-for-stm32.7-2018-q2-update.win32_1.5.0.202011040924/tools/bin/../lib/gcc/arm-none-eabi/7.3.1/../../../../arm-none-eabi/lib/thumb/v7-m\libc_nano.a
LOAD c:/st/stm32cubeide_1.5.0/stm32cubeide/plugins/com.st.stm32cube.ide.mcu.externaltools.gnu-tools-for-stm32.7-2018-q2-update.win32_1.5.0.202011040924/tools/bin/../lib/gcc/arm-none-eabi/7.3.1/../../../../arm-none-eabi/lib/thumb/v7-m\libm.a
END GROUP
START GROUP
LOAD c:/st/stm32cubeide_1.5.0/stm32cubeide/plugins/com.st.stm32cube.ide.mcu.externaltools.gnu-tools-for-stm32.7-2018-q2-update.win32_1.5.0.202011040924/tools/bin/../lib/gcc/arm-none-eabi/7.3.1/thumb/v7-m\libgcc.a
LOAD c:/st/stm32cubeide_1.5.0/stm32cubeide/plugins/com.st.stm32cube.ide.mcu.externaltools.gnu-tools-for-stm32.7-2018-q2-update.win32_1.5.0.202011040924/tools/bin/../lib/gcc/arm-none-eabi/7.3.1/../../../../arm-none-eabi/lib/thumb/v7-m\libc_nano.a
END GROUP
START GROUP
LOAD c:/st/stm32cubeide_1.5.0/stm32cubeide/plugins/com.st.stm32cube.ide.mcu.externaltools.gnu-tools-for-stm32.7-2018-q2-update.win32_1.5.0.202011040924/tools/bin/../lib/gcc/arm-none-eabi/7.3.1/thumb/v7-m\libgcc.a
LOAD c:/st/stm32cubeide_1.5.0/stm32cubeide/plugins/com.st.stm32cube.ide.mcu.externaltools.gnu-tools-for-stm32.7-2018-q2-update.win32_1.5.0.202011040924/tools/bin/../lib/gcc/arm-none-eabi/7.3.1/../../../../arm-none-eabi/lib/thumb/v7-m\libc_nano.a
LOAD c:/st/stm32cubeide_1.5.0/stm32cubeide/plugins/com.st.stm32cube.ide.mcu.externaltools.gnu-tools-for-stm32.7-2018-q2-update.win32_1.5.0.202011040924/tools/bin/../lib/gcc/arm-none-eabi/7.3.1/../../../../arm-none-eabi/lib/thumb/v7-m\libnosys.a
END GROUP
START GROUP
LOAD c:/st/stm32cubeide_1.5.0/stm32cubeide/plugins/com.st.stm32cube.ide.mcu.externaltools.gnu-tools-for-stm32.7-2018-q2-update.win32_1.5.0.202011040924/tools/bin/../lib/gcc/arm-none-eabi/7.3.1/thumb/v7-m\libgcc.a
LOAD c:/st/stm32cubeide_1.5.0/stm32cubeide/plugins/com.st.stm32cube.ide.mcu.externaltools.gnu-tools-for-stm32.7-2018-q2-update.win32_1.5.0.202011040924/tools/bin/../lib/gcc/arm-none-eabi/7.3.1/../../../../arm-none-eabi/lib/thumb/v7-m\libc_nano.a
LOAD c:/st/stm32cubeide_1.5.0/stm32cubeide/plugins/com.st.stm32cube.ide.mcu.externaltools.gnu-tools-for-stm32.7-2018-q2-update.win32_1.5.0.202011040924/tools/bin/../lib/gcc/arm-none-eabi/7.3.1/../../../../arm-none-eabi/lib/thumb/v7-m\libnosys.a
END GROUP
LOAD c:/st/stm32cubeide_1.5.0/stm32cubeide/plugins/com.st.stm32cube.ide.mcu.externaltools.gnu-tools-for-stm32.7-2018-q2-update.win32_1.5.0.202011040924/tools/bin/../lib/gcc/arm-none-eabi/7.3.1/thumb/v7-m/crtend.o
LOAD c:/st/stm32cubeide_1.5.0/stm32cubeide/plugins/com.st.stm32cube.ide.mcu.externaltools.gnu-tools-for-stm32.7-2018-q2-update.win32_1.5.0.202011040924/tools/bin/../lib/gcc/arm-none-eabi/7.3.1/thumb/v7-m/crtn.o
                0x000000002000c000                _estack = (ORIGIN (RAM) + LENGTH (RAM))
                0x0000000000000200                _Min_Heap_Size = 0x200
                0x0000000000000400                _Min_Stack_Size = 0x400

.isr_vector     0x0000000008000000      0x1e4
                0x0000000008000000                . = ALIGN (0x4)
 *(.isr_vector)
 .isr_vector    0x0000000008000000      0x1e4 Core/Startup/startup_stm32f103rctx.o
                0x0000000008000000                g_pfnVectors
                0x00000000080001e4                . = ALIGN (0x4)

.text           0x00000000080001e4     0x3fd0
                0x00000000080001e4                . = ALIGN (0x4)
 *(.text)
 .text          0x00000000080001e4       0x40 c:/st/stm32cubeide_1.5.0/stm32cubeide/plugins/com.st.stm32cube.ide.mcu.externaltools.gnu-tools-for-stm32.7-2018-q2-update.win32_1.5.0.202011040924/tools/bin/../lib/gcc/arm-none-eabi/7.3.1/thumb/v7-m/crtbegin.o
 *(.text*)
 .text.MX_ADC1_Init
                0x0000000008000224       0x7c Core/Src/adc.o
                0x0000000008000224                MX_ADC1_Init
 .text.HAL_ADC_MspInit
                0x00000000080002a0       0xd0 Core/Src/adc.o
                0x00000000080002a0                HAL_ADC_MspInit
 .text.MX_DMA_Init
                0x0000000008000370       0x3c Core/Src/dma.o
                0x0000000008000370                MX_DMA_Init
 .text.MX_GPIO_Init
                0x00000000080003ac      0x134 Core/Src/gpio.o
                0x00000000080003ac                MX_GPIO_Init
 .text.MX_I2C1_Init
                0x00000000080004e0       0x5c Core/Src/i2c.o
                0x00000000080004e0                MX_I2C1_Init
 .text.HAL_I2C_MspInit
                0x000000000800053c       0x7c Core/Src/i2c.o
                0x000000000800053c                HAL_I2C_MspInit
 .text.main     0x00000000080005b8      0x25c Core/Src/main.o
                0x00000000080005b8                main
 .text.SystemClock_Config
                0x0000000008000814       0xae Core/Src/main.o
                0x0000000008000814                SystemClock_Config
 .text.Error_Handler
                0x00000000080008c2        0x8 Core/Src/main.o
                0x00000000080008c2                Error_Handler
 *fill*         0x00000000080008ca        0x2 
 .text.MX_SPI1_Init
                0x00000000080008cc       0x6c Core/Src/spi.o
                0x00000000080008cc                MX_SPI1_Init
 .text.HAL_SPI_MspInit
                0x0000000008000938       0x9c Core/Src/spi.o
                0x0000000008000938                HAL_SPI_MspInit
 .text.HAL_MspInit
                0x00000000080009d4       0x64 Core/Src/stm32f1xx_hal_msp.o
                0x00000000080009d4                HAL_MspInit
 .text.NMI_Handler
                0x0000000008000a38        0x6 Core/Src/stm32f1xx_it.o
                0x0000000008000a38                NMI_Handler
 .text.HardFault_Handler
                0x0000000008000a3e        0x6 Core/Src/stm32f1xx_it.o
                0x0000000008000a3e                HardFault_Handler
 .text.MemManage_Handler
                0x0000000008000a44        0x6 Core/Src/stm32f1xx_it.o
                0x0000000008000a44                MemManage_Handler
 .text.BusFault_Handler
                0x0000000008000a4a        0x6 Core/Src/stm32f1xx_it.o
                0x0000000008000a4a                BusFault_Handler
 .text.UsageFault_Handler
                0x0000000008000a50        0x6 Core/Src/stm32f1xx_it.o
                0x0000000008000a50                UsageFault_Handler
 .text.SVC_Handler
                0x0000000008000a56        0xc Core/Src/stm32f1xx_it.o
                0x0000000008000a56                SVC_Handler
 .text.DebugMon_Handler
                0x0000000008000a62        0xc Core/Src/stm32f1xx_it.o
                0x0000000008000a62                DebugMon_Handler
 .text.PendSV_Handler
                0x0000000008000a6e        0xc Core/Src/stm32f1xx_it.o
                0x0000000008000a6e                PendSV_Handler
 .text.SysTick_Handler
                0x0000000008000a7a        0xc Core/Src/stm32f1xx_it.o
                0x0000000008000a7a                SysTick_Handler
 *fill*         0x0000000008000a86        0x2 
 .text.DMA1_Channel1_IRQHandler
                0x0000000008000a88       0x14 Core/Src/stm32f1xx_it.o
                0x0000000008000a88                DMA1_Channel1_IRQHandler
 .text.SystemInit
                0x0000000008000a9c        0xc Core/Src/system_stm32f1xx.o
                0x0000000008000a9c                SystemInit
 .text.MX_TIM2_Init
                0x0000000008000aa8       0xb0 Core/Src/tim.o
                0x0000000008000aa8                MX_TIM2_Init
 .text.MX_TIM3_Init
                0x0000000008000b58       0xb4 Core/Src/tim.o
                0x0000000008000b58                MX_TIM3_Init
 .text.HAL_TIM_PWM_MspInit
                0x0000000008000c0c       0x60 Core/Src/tim.o
                0x0000000008000c0c                HAL_TIM_PWM_MspInit
 .text.HAL_TIM_MspPostInit
                0x0000000008000c6c       0xa0 Core/Src/tim.o
                0x0000000008000c6c                HAL_TIM_MspPostInit
 .text.Reset_Handler
                0x0000000008000d0c       0x48 Core/Startup/startup_stm32f103rctx.o
                0x0000000008000d0c                Reset_Handler
 .text.Default_Handler
                0x0000000008000d54        0x2 Core/Startup/startup_stm32f103rctx.o
                0x0000000008000d54                RTC_Alarm_IRQHandler
                0x0000000008000d54                EXTI2_IRQHandler
                0x0000000008000d54                TIM8_TRG_COM_IRQHandler
                0x0000000008000d54                TIM8_CC_IRQHandler
                0x0000000008000d54                TIM1_CC_IRQHandler
                0x0000000008000d54                TIM6_IRQHandler
                0x0000000008000d54                PVD_IRQHandler
                0x0000000008000d54                SDIO_IRQHandler
                0x0000000008000d54                EXTI3_IRQHandler
                0x0000000008000d54                EXTI0_IRQHandler
                0x0000000008000d54                I2C2_EV_IRQHandler
                0x0000000008000d54                ADC1_2_IRQHandler
                0x0000000008000d54                SPI1_IRQHandler
                0x0000000008000d54                TAMPER_IRQHandler
                0x0000000008000d54                TIM8_UP_IRQHandler
                0x0000000008000d54                DMA2_Channel2_IRQHandler
                0x0000000008000d54                DMA1_Channel4_IRQHandler
                0x0000000008000d54                USART3_IRQHandler
                0x0000000008000d54                RTC_IRQHandler
                0x0000000008000d54                DMA1_Channel7_IRQHandler
                0x0000000008000d54                CAN1_RX1_IRQHandler
                0x0000000008000d54                UART5_IRQHandler
                0x0000000008000d54                ADC3_IRQHandler
                0x0000000008000d54                TIM4_IRQHandler
                0x0000000008000d54                DMA2_Channel1_IRQHandler
                0x0000000008000d54                I2C1_EV_IRQHandler
                0x0000000008000d54                DMA1_Channel6_IRQHandler
                0x0000000008000d54                UART4_IRQHandler
                0x0000000008000d54                TIM3_IRQHandler
                0x0000000008000d54                RCC_IRQHandler
                0x0000000008000d54                TIM1_TRG_COM_IRQHandler
                0x0000000008000d54                Default_Handler
                0x0000000008000d54                EXTI15_10_IRQHandler
                0x0000000008000d54                TIM7_IRQHandler
                0x0000000008000d54                TIM5_IRQHandler
                0x0000000008000d54                EXTI9_5_IRQHandler
                0x0000000008000d54                SPI2_IRQHandler
                0x0000000008000d54                DMA1_Channel5_IRQHandler
                0x0000000008000d54                EXTI4_IRQHandler
                0x0000000008000d54                USB_LP_CAN1_RX0_IRQHandler
                0x0000000008000d54                USB_HP_CAN1_TX_IRQHandler
                0x0000000008000d54                DMA1_Channel3_IRQHandler
                0x0000000008000d54                FSMC_IRQHandler
                0x0000000008000d54                TIM1_UP_IRQHandler
                0x0000000008000d54                WWDG_IRQHandler
                0x0000000008000d54                TIM2_IRQHandler
                0x0000000008000d54                TIM1_BRK_IRQHandler
                0x0000000008000d54                EXTI1_IRQHandler
                0x0000000008000d54                DMA2_Channel4_5_IRQHandler
                0x0000000008000d54                USART2_IRQHandler
                0x0000000008000d54                I2C2_ER_IRQHandler
                0x0000000008000d54                DMA1_Channel2_IRQHandler
                0x0000000008000d54                TIM8_BRK_IRQHandler
                0x0000000008000d54                CAN1_SCE_IRQHandler
                0x0000000008000d54                FLASH_IRQHandler
                0x0000000008000d54                USART1_IRQHandler
                0x0000000008000d54                SPI3_IRQHandler
                0x0000000008000d54                I2C1_ER_IRQHandler
                0x0000000008000d54                USBWakeUp_IRQHandler
                0x0000000008000d54                DMA2_Channel3_IRQHandler
 .text.LCD_DrawLine
                0x0000000008000d56      0x106 Core/user/TFT/gui.o
                0x0000000008000d56                LCD_DrawLine
 .text.LCD_ShowChar
                0x0000000008000e5c      0x1b8 Core/user/TFT/gui.o
                0x0000000008000e5c                LCD_ShowChar
 .text.mypow    0x0000000008001014       0x36 Core/user/TFT/gui.o
                0x0000000008001014                mypow
 *fill*         0x000000000800104a        0x2 
 .text.LCD_ShowNum
                0x000000000800104c      0x108 Core/user/TFT/gui.o
                0x000000000800104c                LCD_ShowNum
 .text.GUI_DrawFont16
                0x0000000008001154      0x16c Core/user/TFT/gui.o
                0x0000000008001154                GUI_DrawFont16
 .text.GUI_DrawFont24
                0x00000000080012c0      0x164 Core/user/TFT/gui.o
                0x00000000080012c0                GUI_DrawFont24
 .text.GUI_DrawFont32
                0x0000000008001424      0x16c Core/user/TFT/gui.o
                0x0000000008001424                GUI_DrawFont32
 .text.Show_Str
                0x0000000008001590      0x1a4 Core/user/TFT/gui.o
                0x0000000008001590                Show_Str
 .text.LCD_WR_REG
                0x0000000008001734       0x3c Core/user/TFT/lcd.o
                0x0000000008001734                LCD_WR_REG
 .text.LCD_WR_DATA
                0x0000000008001770       0x3c Core/user/TFT/lcd.o
                0x0000000008001770                LCD_WR_DATA
 .text.LCD_WriteReg
                0x00000000080017ac       0x2a Core/user/TFT/lcd.o
                0x00000000080017ac                LCD_WriteReg
 *fill*         0x00000000080017d6        0x2 
 .text.LCD_WriteRAM_Prepare
                0x00000000080017d8       0x18 Core/user/TFT/lcd.o
                0x00000000080017d8                LCD_WriteRAM_Prepare
 .text.Lcd_WriteData_16Bit
                0x00000000080017f0       0x50 Core/user/TFT/lcd.o
                0x00000000080017f0                Lcd_WriteData_16Bit
 .text.LCD_DrawPoint
                0x0000000008001840       0x34 Core/user/TFT/lcd.o
                0x0000000008001840                LCD_DrawPoint
 .text.LCD_Clear
                0x0000000008001874       0x84 Core/user/TFT/lcd.o
                0x0000000008001874                LCD_Clear
 .text.LCD_RESET
                0x00000000080018f8       0x28 Core/user/TFT/lcd.o
                0x00000000080018f8                LCD_RESET
 .text.LCD_Init
                0x0000000008001920      0x240 Core/user/TFT/lcd.o
                0x0000000008001920                LCD_Init
 .text.LCD_SetWindows
                0x0000000008001b60       0x88 Core/user/TFT/lcd.o
                0x0000000008001b60                LCD_SetWindows
 .text.LCD_SetCursor
                0x0000000008001be8       0x24 Core/user/TFT/lcd.o
                0x0000000008001be8                LCD_SetCursor
 .text.LCD_direction
                0x0000000008001c0c       0xa0 Core/user/TFT/lcd.o
                0x0000000008001c0c                LCD_direction
 .text.SPI_WriteByte
                0x0000000008001cac       0x3e Core/user/TFT/my_spi.o
                0x0000000008001cac                SPI_WriteByte
 *fill*         0x0000000008001cea        0x2 
 .text.SPI_Init
                0x0000000008001cec       0x20 Core/user/TFT/my_spi.o
                0x0000000008001cec                SPI_Init
 .text.HAL_Init
                0x0000000008001d0c       0x2c Drivers/STM32F1xx_HAL_Driver/Src/stm32f1xx_hal.o
                0x0000000008001d0c                HAL_Init
 .text.HAL_InitTick
                0x0000000008001d38       0x60 Drivers/STM32F1xx_HAL_Driver/Src/stm32f1xx_hal.o
                0x0000000008001d38                HAL_InitTick
 .text.HAL_IncTick
                0x0000000008001d98       0x24 Drivers/STM32F1xx_HAL_Driver/Src/stm32f1xx_hal.o
                0x0000000008001d98                HAL_IncTick
 .text.HAL_GetTick
                0x0000000008001dbc       0x14 Drivers/STM32F1xx_HAL_Driver/Src/stm32f1xx_hal.o
                0x0000000008001dbc                HAL_GetTick
 .text.HAL_Delay
                0x0000000008001dd0       0x44 Drivers/STM32F1xx_HAL_Driver/Src/stm32f1xx_hal.o
                0x0000000008001dd0                HAL_Delay
 .text.HAL_ADC_Init
                0x0000000008001e14      0x1d4 Drivers/STM32F1xx_HAL_Driver/Src/stm32f1xx_hal_adc.o
                0x0000000008001e14                HAL_ADC_Init
 .text.HAL_ADC_ConfigChannel
                0x0000000008001fe8      0x1f0 Drivers/STM32F1xx_HAL_Driver/Src/stm32f1xx_hal_adc.o
                0x0000000008001fe8                HAL_ADC_ConfigChannel
 .text.ADC_ConversionStop_Disable
                0x00000000080021d8       0x82 Drivers/STM32F1xx_HAL_Driver/Src/stm32f1xx_hal_adc.o
                0x00000000080021d8                ADC_ConversionStop_Disable
 *fill*         0x000000000800225a        0x2 
 .text.__NVIC_SetPriorityGrouping
                0x000000000800225c       0x48 Drivers/STM32F1xx_HAL_Driver/Src/stm32f1xx_hal_cortex.o
 .text.__NVIC_GetPriorityGrouping
                0x00000000080022a4       0x1c Drivers/STM32F1xx_HAL_Driver/Src/stm32f1xx_hal_cortex.o
 .text.__NVIC_EnableIRQ
                0x00000000080022c0       0x38 Drivers/STM32F1xx_HAL_Driver/Src/stm32f1xx_hal_cortex.o
 .text.__NVIC_SetPriority
                0x00000000080022f8       0x54 Drivers/STM32F1xx_HAL_Driver/Src/stm32f1xx_hal_cortex.o
 .text.NVIC_EncodePriority
                0x000000000800234c       0x64 Drivers/STM32F1xx_HAL_Driver/Src/stm32f1xx_hal_cortex.o
 .text.SysTick_Config
                0x00000000080023b0       0x44 Drivers/STM32F1xx_HAL_Driver/Src/stm32f1xx_hal_cortex.o
 .text.HAL_NVIC_SetPriorityGrouping
                0x00000000080023f4       0x16 Drivers/STM32F1xx_HAL_Driver/Src/stm32f1xx_hal_cortex.o
                0x00000000080023f4                HAL_NVIC_SetPriorityGrouping
 .text.HAL_NVIC_SetPriority
                0x000000000800240a       0x38 Drivers/STM32F1xx_HAL_Driver/Src/stm32f1xx_hal_cortex.o
                0x000000000800240a                HAL_NVIC_SetPriority
 .text.HAL_NVIC_EnableIRQ
                0x0000000008002442       0x1c Drivers/STM32F1xx_HAL_Driver/Src/stm32f1xx_hal_cortex.o
                0x0000000008002442                HAL_NVIC_EnableIRQ
 .text.HAL_SYSTICK_Config
                0x000000000800245e       0x18 Drivers/STM32F1xx_HAL_Driver/Src/stm32f1xx_hal_cortex.o
                0x000000000800245e                HAL_SYSTICK_Config
 *fill*         0x0000000008002476        0x2 
 .text.HAL_DMA_Init
                0x0000000008002478       0xec Drivers/STM32F1xx_HAL_Driver/Src/stm32f1xx_hal_dma.o
                0x0000000008002478                HAL_DMA_Init
 .text.HAL_DMA_IRQHandler
                0x0000000008002564      0x478 Drivers/STM32F1xx_HAL_Driver/Src/stm32f1xx_hal_dma.o
                0x0000000008002564                HAL_DMA_IRQHandler
 .text.HAL_GPIO_Init
                0x00000000080029dc      0x2d4 Drivers/STM32F1xx_HAL_Driver/Src/stm32f1xx_hal_gpio.o
                0x00000000080029dc                HAL_GPIO_Init
 .text.HAL_GPIO_ReadPin
                0x0000000008002cb0       0x2e Drivers/STM32F1xx_HAL_Driver/Src/stm32f1xx_hal_gpio.o
                0x0000000008002cb0                HAL_GPIO_ReadPin
 .text.HAL_GPIO_WritePin
                0x0000000008002cde       0x30 Drivers/STM32F1xx_HAL_Driver/Src/stm32f1xx_hal_gpio.o
                0x0000000008002cde                HAL_GPIO_WritePin
 *fill*         0x0000000008002d0e        0x2 
 .text.HAL_I2C_Init
                0x0000000008002d10      0x270 Drivers/STM32F1xx_HAL_Driver/Src/stm32f1xx_hal_i2c.o
                0x0000000008002d10                HAL_I2C_Init
 .text.HAL_RCC_OscConfig
                0x0000000008002f80      0x500 Drivers/STM32F1xx_HAL_Driver/Src/stm32f1xx_hal_rcc.o
                0x0000000008002f80                HAL_RCC_OscConfig
 .text.HAL_RCC_ClockConfig
                0x0000000008003480      0x1d4 Drivers/STM32F1xx_HAL_Driver/Src/stm32f1xx_hal_rcc.o
                0x0000000008003480                HAL_RCC_ClockConfig
 .text.HAL_RCC_GetSysClockFreq
                0x0000000008003654       0xc4 Drivers/STM32F1xx_HAL_Driver/Src/stm32f1xx_hal_rcc.o
                0x0000000008003654                HAL_RCC_GetSysClockFreq
 .text.HAL_RCC_GetHCLKFreq
                0x0000000008003718       0x14 Drivers/STM32F1xx_HAL_Driver/Src/stm32f1xx_hal_rcc.o
                0x0000000008003718                HAL_RCC_GetHCLKFreq
 .text.HAL_RCC_GetPCLK1Freq
                0x000000000800372c       0x28 Drivers/STM32F1xx_HAL_Driver/Src/stm32f1xx_hal_rcc.o
                0x000000000800372c                HAL_RCC_GetPCLK1Freq
 .text.RCC_Delay
                0x0000000008003754       0x3c Drivers/STM32F1xx_HAL_Driver/Src/stm32f1xx_hal_rcc.o
 .text.HAL_RCCEx_PeriphCLKConfig
                0x0000000008003790      0x16c Drivers/STM32F1xx_HAL_Driver/Src/stm32f1xx_hal_rcc_ex.o
                0x0000000008003790                HAL_RCCEx_PeriphCLKConfig
 .text.HAL_SPI_Init
                0x00000000080038fc      0x108 Drivers/STM32F1xx_HAL_Driver/Src/stm32f1xx_hal_spi.o
                0x00000000080038fc                HAL_SPI_Init
 .text.HAL_TIM_PWM_Init
                0x0000000008003a04       0x9e Drivers/STM32F1xx_HAL_Driver/Src/stm32f1xx_hal_tim.o
                0x0000000008003a04                HAL_TIM_PWM_Init
 *fill*         0x0000000008003aa2        0x2 
 .text.HAL_TIM_PWM_ConfigChannel
                0x0000000008003aa4      0x17c Drivers/STM32F1xx_HAL_Driver/Src/stm32f1xx_hal_tim.o
                0x0000000008003aa4                HAL_TIM_PWM_ConfigChannel
 .text.TIM_Base_SetConfig
                0x0000000008003c20       0xf4 Drivers/STM32F1xx_HAL_Driver/Src/stm32f1xx_hal_tim.o
                0x0000000008003c20                TIM_Base_SetConfig
 .text.TIM_OC1_SetConfig
                0x0000000008003d14       0xe0 Drivers/STM32F1xx_HAL_Driver/Src/stm32f1xx_hal_tim.o
 .text.TIM_OC2_SetConfig
                0x0000000008003df4       0xe8 Drivers/STM32F1xx_HAL_Driver/Src/stm32f1xx_hal_tim.o
                0x0000000008003df4                TIM_OC2_SetConfig
 .text.TIM_OC3_SetConfig
                0x0000000008003edc       0xe8 Drivers/STM32F1xx_HAL_Driver/Src/stm32f1xx_hal_tim.o
 .text.TIM_OC4_SetConfig
                0x0000000008003fc4       0xa8 Drivers/STM32F1xx_HAL_Driver/Src/stm32f1xx_hal_tim.o
 .text.HAL_TIMEx_MasterConfigSynchronization
                0x000000000800406c       0xd8 Drivers/STM32F1xx_HAL_Driver/Src/stm32f1xx_hal_tim_ex.o
                0x000000000800406c                HAL_TIMEx_MasterConfigSynchronization
 .text.__libc_init_array
                0x0000000008004144       0x48 c:/st/stm32cubeide_1.5.0/stm32cubeide/plugins/com.st.stm32cube.ide.mcu.externaltools.gnu-tools-for-stm32.7-2018-q2-update.win32_1.5.0.202011040924/tools/bin/../lib/gcc/arm-none-eabi/7.3.1/../../../../arm-none-eabi/lib/thumb/v7-m\libc_nano.a(lib_a-init.o)
                0x0000000008004144                __libc_init_array
 .text.memset   0x000000000800418c       0x10 c:/st/stm32cubeide_1.5.0/stm32cubeide/plugins/com.st.stm32cube.ide.mcu.externaltools.gnu-tools-for-stm32.7-2018-q2-update.win32_1.5.0.202011040924/tools/bin/../lib/gcc/arm-none-eabi/7.3.1/../../../../arm-none-eabi/lib/thumb/v7-m\libc_nano.a(lib_a-memset.o)
                0x000000000800418c                memset
 *(.glue_7)
 .glue_7        0x000000000800419c        0x0 linker stubs
 *(.glue_7t)
 .glue_7t       0x000000000800419c        0x0 linker stubs
 *(.eh_frame)
 .eh_frame      0x000000000800419c        0x0 c:/st/stm32cubeide_1.5.0/stm32cubeide/plugins/com.st.stm32cube.ide.mcu.externaltools.gnu-tools-for-stm32.7-2018-q2-update.win32_1.5.0.202011040924/tools/bin/../lib/gcc/arm-none-eabi/7.3.1/thumb/v7-m/crtbegin.o
 *(.init)
 .init          0x000000000800419c        0x4 c:/st/stm32cubeide_1.5.0/stm32cubeide/plugins/com.st.stm32cube.ide.mcu.externaltools.gnu-tools-for-stm32.7-2018-q2-update.win32_1.5.0.202011040924/tools/bin/../lib/gcc/arm-none-eabi/7.3.1/thumb/v7-m/crti.o
                0x000000000800419c                _init
 .init          0x00000000080041a0        0x8 c:/st/stm32cubeide_1.5.0/stm32cubeide/plugins/com.st.stm32cube.ide.mcu.externaltools.gnu-tools-for-stm32.7-2018-q2-update.win32_1.5.0.202011040924/tools/bin/../lib/gcc/arm-none-eabi/7.3.1/thumb/v7-m/crtn.o
 *(.fini)
 .fini          0x00000000080041a8        0x4 c:/st/stm32cubeide_1.5.0/stm32cubeide/plugins/com.st.stm32cube.ide.mcu.externaltools.gnu-tools-for-stm32.7-2018-q2-update.win32_1.5.0.202011040924/tools/bin/../lib/gcc/arm-none-eabi/7.3.1/thumb/v7-m/crti.o
                0x00000000080041a8                _fini
 .fini          0x00000000080041ac        0x8 c:/st/stm32cubeide_1.5.0/stm32cubeide/plugins/com.st.stm32cube.ide.mcu.externaltools.gnu-tools-for-stm32.7-2018-q2-update.win32_1.5.0.202011040924/tools/bin/../lib/gcc/arm-none-eabi/7.3.1/thumb/v7-m/crtn.o
                0x00000000080041b4                . = ALIGN (0x4)
                0x00000000080041b4                _etext = .

.vfp11_veneer   0x00000000080041b4        0x0
 .vfp11_veneer  0x00000000080041b4        0x0 linker stubs

.v4_bx          0x00000000080041b4        0x0
 .v4_bx         0x00000000080041b4        0x0 linker stubs

.iplt           0x00000000080041b4        0x0
 .iplt          0x00000000080041b4        0x0 c:/st/stm32cubeide_1.5.0/stm32cubeide/plugins/com.st.stm32cube.ide.mcu.externaltools.gnu-tools-for-stm32.7-2018-q2-update.win32_1.5.0.202011040924/tools/bin/../lib/gcc/arm-none-eabi/7.3.1/thumb/v7-m/crtbegin.o

.rodata         0x00000000080041b4     0x170c
                0x00000000080041b4                . = ALIGN (0x4)
 *(.rodata)
 .rodata        0x00000000080041b4       0x30 Core/Src/main.o
 .rodata        0x00000000080041e4       0x12 Drivers/STM32F1xx_HAL_Driver/Src/stm32f1xx_hal_rcc.o
 *(.rodata*)
 *fill*         0x00000000080041f6        0x2 
 .rodata.AHBPrescTable
                0x00000000080041f8       0x10 Core/Src/system_stm32f1xx.o
                0x00000000080041f8                AHBPrescTable
 .rodata.APBPrescTable
                0x0000000008004208        0x8 Core/Src/system_stm32f1xx.o
                0x0000000008004208                APBPrescTable
 .rodata.asc2_1206
                0x0000000008004210      0x474 Core/user/TFT/gui.o
                0x0000000008004210                asc2_1206
 .rodata.asc2_1608
                0x0000000008004684      0x5f0 Core/user/TFT/gui.o
                0x0000000008004684                asc2_1608
 .rodata.tfont16
                0x0000000008004c74      0x83c Core/user/TFT/gui.o
                0x0000000008004c74                tfont16
 .rodata.tfont24
                0x00000000080054b0      0x206 Core/user/TFT/gui.o
                0x00000000080054b0                tfont24
 *fill*         0x00000000080056b6        0x2 
 .rodata.tfont32
                0x00000000080056b8      0x208 Core/user/TFT/gui.o
                0x00000000080056b8                tfont32
                0x00000000080058c0                . = ALIGN (0x4)

.rel.dyn        0x00000000080058c0        0x0
 .rel.iplt      0x00000000080058c0        0x0 c:/st/stm32cubeide_1.5.0/stm32cubeide/plugins/com.st.stm32cube.ide.mcu.externaltools.gnu-tools-for-stm32.7-2018-q2-update.win32_1.5.0.202011040924/tools/bin/../lib/gcc/arm-none-eabi/7.3.1/thumb/v7-m/crtbegin.o

.ARM.extab      0x00000000080058c0        0x0
                0x00000000080058c0                . = ALIGN (0x4)
 *(.ARM.extab* .gnu.linkonce.armextab.*)
                0x00000000080058c0                . = ALIGN (0x4)

.ARM            0x00000000080058c0        0x0
                0x00000000080058c0                . = ALIGN (0x4)
                0x00000000080058c0                __exidx_start = .
 *(.ARM.exidx*)
                0x00000000080058c0                __exidx_end = .
                0x00000000080058c0                . = ALIGN (0x4)

.preinit_array  0x00000000080058c0        0x0
                0x00000000080058c0                . = ALIGN (0x4)
                0x00000000080058c0                PROVIDE (__preinit_array_start = .)
 *(.preinit_array*)
                0x00000000080058c0                PROVIDE (__preinit_array_end = .)
                0x00000000080058c0                . = ALIGN (0x4)

.init_array     0x00000000080058c0        0x4
                0x00000000080058c0                . = ALIGN (0x4)
                0x00000000080058c0                PROVIDE (__init_array_start = .)
 *(SORT_BY_NAME(.init_array.*))
 *(.init_array*)
 .init_array    0x00000000080058c0        0x4 c:/st/stm32cubeide_1.5.0/stm32cubeide/plugins/com.st.stm32cube.ide.mcu.externaltools.gnu-tools-for-stm32.7-2018-q2-update.win32_1.5.0.202011040924/tools/bin/../lib/gcc/arm-none-eabi/7.3.1/thumb/v7-m/crtbegin.o
                0x00000000080058c4                PROVIDE (__init_array_end = .)
                0x00000000080058c4                . = ALIGN (0x4)

.fini_array     0x00000000080058c4        0x4
                0x00000000080058c4                . = ALIGN (0x4)
                [!provide]                        PROVIDE (__fini_array_start = .)
 *(SORT_BY_NAME(.fini_array.*))
 *(.fini_array*)
 .fini_array    0x00000000080058c4        0x4 c:/st/stm32cubeide_1.5.0/stm32cubeide/plugins/com.st.stm32cube.ide.mcu.externaltools.gnu-tools-for-stm32.7-2018-q2-update.win32_1.5.0.202011040924/tools/bin/../lib/gcc/arm-none-eabi/7.3.1/thumb/v7-m/crtbegin.o
                [!provide]                        PROVIDE (__fini_array_end = .)
                0x00000000080058c8                . = ALIGN (0x4)
                0x00000000080058c8                _sidata = LOADADDR (.data)

.data           0x0000000020000000       0x10 load address 0x00000000080058c8
                0x0000000020000000                . = ALIGN (0x4)
                0x0000000020000000                _sdata = .
 *(.data)
 *(.data*)
 .data.SystemCoreClock
                0x0000000020000000        0x4 Core/Src/system_stm32f1xx.o
                0x0000000020000000                SystemCoreClock
 .data.BACK_COLOR
                0x0000000020000004        0x2 Core/user/TFT/lcd.o
                0x0000000020000004                BACK_COLOR
 *fill*         0x0000000020000006        0x2 
 .data.uwTickPrio
                0x0000000020000008        0x4 Drivers/STM32F1xx_HAL_Driver/Src/stm32f1xx_hal.o
                0x0000000020000008                uwTickPrio
 .data.uwTickFreq
                0x000000002000000c        0x1 Drivers/STM32F1xx_HAL_Driver/Src/stm32f1xx_hal.o
                0x000000002000000c                uwTickFreq
 *(.RamFunc)
 *(.RamFunc*)
                0x0000000020000010                . = ALIGN (0x4)
 *fill*         0x000000002000000d        0x3 
                0x0000000020000010                _edata = .

.igot.plt       0x0000000020000010        0x0 load address 0x00000000080058d8
 .igot.plt      0x0000000020000010        0x0 c:/st/stm32cubeide_1.5.0/stm32cubeide/plugins/com.st.stm32cube.ide.mcu.externaltools.gnu-tools-for-stm32.7-2018-q2-update.win32_1.5.0.202011040924/tools/bin/../lib/gcc/arm-none-eabi/7.3.1/thumb/v7-m/crtbegin.o
                0x0000000020000010                . = ALIGN (0x4)

.bss            0x0000000020000010      0x1e4 load address 0x00000000080058d8
                0x0000000020000010                _sbss = .
                0x0000000020000010                __bss_start__ = _sbss
 *(.bss)
 .bss           0x0000000020000010       0x1c c:/st/stm32cubeide_1.5.0/stm32cubeide/plugins/com.st.stm32cube.ide.mcu.externaltools.gnu-tools-for-stm32.7-2018-q2-update.win32_1.5.0.202011040924/tools/bin/../lib/gcc/arm-none-eabi/7.3.1/thumb/v7-m/crtbegin.o
 *(.bss*)
 .bss.POINT_COLOR
                0x000000002000002c        0x2 Core/user/TFT/lcd.o
                0x000000002000002c                POINT_COLOR
 *(COMMON)
 *fill*         0x000000002000002e        0x2 
 COMMON         0x0000000020000030       0x74 Core/Src/adc.o
                0x0000000020000030                hadc1
                0x0000000020000060                hdma_adc1
 COMMON         0x00000000200000a4       0x54 Core/Src/i2c.o
                0x00000000200000a4                hi2c1
 COMMON         0x00000000200000f8       0x58 Core/Src/spi.o
                0x00000000200000f8                hspi1
 COMMON         0x0000000020000150       0x90 Core/Src/tim.o
                0x0000000020000150                htim3
                0x0000000020000198                htim2
 COMMON         0x00000000200001e0       0x10 Core/user/TFT/lcd.o
                0x00000000200001e0                lcddev
                0x00000000200001ee                DeviceCode
 COMMON         0x00000000200001f0        0x4 Drivers/STM32F1xx_HAL_Driver/Src/stm32f1xx_hal.o
                0x00000000200001f0                uwTick
                0x00000000200001f4                . = ALIGN (0x4)
                0x00000000200001f4                _ebss = .
                0x00000000200001f4                __bss_end__ = _ebss

._user_heap_stack
                0x00000000200001f4      0x604 load address 0x00000000080058d8
                0x00000000200001f8                . = ALIGN (0x8)
 *fill*         0x00000000200001f4        0x4 
                [!provide]                        PROVIDE (end = .)
                0x00000000200001f8                PROVIDE (_end = .)
                0x00000000200003f8                . = (. + _Min_Heap_Size)
 *fill*         0x00000000200001f8      0x200 
                0x00000000200007f8                . = (. + _Min_Stack_Size)
 *fill*         0x00000000200003f8      0x400 
                0x00000000200007f8                . = ALIGN (0x8)

/DISCARD/
 libc.a(*)
 libm.a(*)
 libgcc.a(*)

.ARM.attributes
                0x0000000000000000       0x29
 *(.ARM.attributes)
 .ARM.attributes
                0x0000000000000000       0x1d c:/st/stm32cubeide_1.5.0/stm32cubeide/plugins/com.st.stm32cube.ide.mcu.externaltools.gnu-tools-for-stm32.7-2018-q2-update.win32_1.5.0.202011040924/tools/bin/../lib/gcc/arm-none-eabi/7.3.1/thumb/v7-m/crti.o
 .ARM.attributes
                0x000000000000001d       0x2d c:/st/stm32cubeide_1.5.0/stm32cubeide/plugins/com.st.stm32cube.ide.mcu.externaltools.gnu-tools-for-stm32.7-2018-q2-update.win32_1.5.0.202011040924/tools/bin/../lib/gcc/arm-none-eabi/7.3.1/thumb/v7-m/crtbegin.o
 .ARM.attributes
                0x000000000000004a       0x33 Core/Src/adc.o
 .ARM.attributes
                0x000000000000007d       0x33 Core/Src/dma.o
 .ARM.attributes
                0x00000000000000b0       0x33 Core/Src/gpio.o
 .ARM.attributes
                0x00000000000000e3       0x33 Core/Src/i2c.o
 .ARM.attributes
                0x0000000000000116       0x33 Core/Src/main.o
 .ARM.attributes
                0x0000000000000149       0x33 Core/Src/spi.o
 .ARM.attributes
                0x000000000000017c       0x33 Core/Src/stm32f1xx_hal_msp.o
 .ARM.attributes
                0x00000000000001af       0x33 Core/Src/stm32f1xx_it.o
 .ARM.attributes
                0x00000000000001e2       0x33 Core/Src/system_stm32f1xx.o
 .ARM.attributes
                0x0000000000000215       0x33 Core/Src/tim.o
 .ARM.attributes
                0x0000000000000248       0x21 Core/Startup/startup_stm32f103rctx.o
 .ARM.attributes
                0x0000000000000269       0x33 Core/user/TFT/gui.o
 .ARM.attributes
                0x000000000000029c       0x33 Core/user/TFT/lcd.o
 .ARM.attributes
                0x00000000000002cf       0x33 Core/user/TFT/my_spi.o
 .ARM.attributes
                0x0000000000000302       0x33 Drivers/STM32F1xx_HAL_Driver/Src/stm32f1xx_hal.o
 .ARM.attributes
                0x0000000000000335       0x33 Drivers/STM32F1xx_HAL_Driver/Src/stm32f1xx_hal_adc.o
 .ARM.attributes
                0x0000000000000368       0x33 Drivers/STM32F1xx_HAL_Driver/Src/stm32f1xx_hal_cortex.o
 .ARM.attributes
                0x000000000000039b       0x33 Drivers/STM32F1xx_HAL_Driver/Src/stm32f1xx_hal_dma.o
 .ARM.attributes
                0x00000000000003ce       0x33 Drivers/STM32F1xx_HAL_Driver/Src/stm32f1xx_hal_gpio.o
 .ARM.attributes
                0x0000000000000401       0x33 Drivers/STM32F1xx_HAL_Driver/Src/stm32f1xx_hal_i2c.o
 .ARM.attributes
                0x0000000000000434       0x33 Drivers/STM32F1xx_HAL_Driver/Src/stm32f1xx_hal_rcc.o
 .ARM.attributes
                0x0000000000000467       0x33 Drivers/STM32F1xx_HAL_Driver/Src/stm32f1xx_hal_rcc_ex.o
 .ARM.attributes
                0x000000000000049a       0x33 Drivers/STM32F1xx_HAL_Driver/Src/stm32f1xx_hal_spi.o
 .ARM.attributes
                0x00000000000004cd       0x33 Drivers/STM32F1xx_HAL_Driver/Src/stm32f1xx_hal_tim.o
 .ARM.attributes
                0x0000000000000500       0x33 Drivers/STM32F1xx_HAL_Driver/Src/stm32f1xx_hal_tim_ex.o
 .ARM.attributes
                0x0000000000000533       0x2d c:/st/stm32cubeide_1.5.0/stm32cubeide/plugins/com.st.stm32cube.ide.mcu.externaltools.gnu-tools-for-stm32.7-2018-q2-update.win32_1.5.0.202011040924/tools/bin/../lib/gcc/arm-none-eabi/7.3.1/../../../../arm-none-eabi/lib/thumb/v7-m\libc_nano.a(lib_a-init.o)
 .ARM.attributes
                0x0000000000000560       0x2d c:/st/stm32cubeide_1.5.0/stm32cubeide/plugins/com.st.stm32cube.ide.mcu.externaltools.gnu-tools-for-stm32.7-2018-q2-update.win32_1.5.0.202011040924/tools/bin/../lib/gcc/arm-none-eabi/7.3.1/../../../../arm-none-eabi/lib/thumb/v7-m\libc_nano.a(lib_a-memset.o)
 .ARM.attributes
                0x000000000000058d       0x1d c:/st/stm32cubeide_1.5.0/stm32cubeide/plugins/com.st.stm32cube.ide.mcu.externaltools.gnu-tools-for-stm32.7-2018-q2-update.win32_1.5.0.202011040924/tools/bin/../lib/gcc/arm-none-eabi/7.3.1/thumb/v7-m/crtn.o
OUTPUT(demo.elf elf32-littlearm)

.debug_info     0x0000000000000000    0x12c03
 .debug_info    0x0000000000000000      0x80a Core/Src/adc.o
 .debug_info    0x000000000000080a      0x3de Core/Src/dma.o
 .debug_info    0x0000000000000be8      0x35d Core/Src/gpio.o
 .debug_info    0x0000000000000f45      0x842 Core/Src/i2c.o
 .debug_info    0x0000000000001787     0x1937 Core/Src/main.o
 .debug_info    0x00000000000030be      0x8a8 Core/Src/spi.o
 .debug_info    0x0000000000003966      0x2d6 Core/Src/stm32f1xx_hal_msp.o
 .debug_info    0x0000000000003c3c      0x42b Core/Src/stm32f1xx_it.o
 .debug_info    0x0000000000004067      0x29a Core/Src/system_stm32f1xx.o
 .debug_info    0x0000000000004301      0xa22 Core/Src/tim.o
 .debug_info    0x0000000000004d23       0x22 Core/Startup/startup_stm32f103rctx.o
 .debug_info    0x0000000000004d45     0x1610 Core/user/TFT/gui.o
 .debug_info    0x0000000000006355     0x1131 Core/user/TFT/lcd.o
 .debug_info    0x0000000000007486      0x68f Core/user/TFT/my_spi.o
 .debug_info    0x0000000000007b15      0x77a Drivers/STM32F1xx_HAL_Driver/Src/stm32f1xx_hal.o
 .debug_info    0x000000000000828f      0xc6c Drivers/STM32F1xx_HAL_Driver/Src/stm32f1xx_hal_adc.o
 .debug_info    0x0000000000008efb      0xbb7 Drivers/STM32F1xx_HAL_Driver/Src/stm32f1xx_hal_cortex.o
 .debug_info    0x0000000000009ab2      0x7b1 Drivers/STM32F1xx_HAL_Driver/Src/stm32f1xx_hal_dma.o
 .debug_info    0x000000000000a263      0x69b Drivers/STM32F1xx_HAL_Driver/Src/stm32f1xx_hal_gpio.o
 .debug_info    0x000000000000a8fe     0x256e Drivers/STM32F1xx_HAL_Driver/Src/stm32f1xx_hal_i2c.o
 .debug_info    0x000000000000ce6c      0x80f Drivers/STM32F1xx_HAL_Driver/Src/stm32f1xx_hal_rcc.o
 .debug_info    0x000000000000d67b      0x45e Drivers/STM32F1xx_HAL_Driver/Src/stm32f1xx_hal_rcc_ex.o
 .debug_info    0x000000000000dad9     0x158e Drivers/STM32F1xx_HAL_Driver/Src/stm32f1xx_hal_spi.o
 .debug_info    0x000000000000f067     0x27f1 Drivers/STM32F1xx_HAL_Driver/Src/stm32f1xx_hal_tim.o
 .debug_info    0x0000000000011858     0x13ab Drivers/STM32F1xx_HAL_Driver/Src/stm32f1xx_hal_tim_ex.o

.debug_abbrev   0x0000000000000000     0x2bf7
 .debug_abbrev  0x0000000000000000      0x1aa Core/Src/adc.o
 .debug_abbrev  0x00000000000001aa      0x107 Core/Src/dma.o
 .debug_abbrev  0x00000000000002b1      0x134 Core/Src/gpio.o
 .debug_abbrev  0x00000000000003e5      0x199 Core/Src/i2c.o
 .debug_abbrev  0x000000000000057e      0x227 Core/Src/main.o
 .debug_abbrev  0x00000000000007a5      0x199 Core/Src/spi.o
 .debug_abbrev  0x000000000000093e      0x109 Core/Src/stm32f1xx_hal_msp.o
 .debug_abbrev  0x0000000000000a47      0x149 Core/Src/stm32f1xx_it.o
 .debug_abbrev  0x0000000000000b90      0x134 Core/Src/system_stm32f1xx.o
 .debug_abbrev  0x0000000000000cc4      0x1c4 Core/Src/tim.o
 .debug_abbrev  0x0000000000000e88       0x12 Core/Startup/startup_stm32f103rctx.o
 .debug_abbrev  0x0000000000000e9a      0x2a4 Core/user/TFT/gui.o
 .debug_abbrev  0x000000000000113e      0x248 Core/user/TFT/lcd.o
 .debug_abbrev  0x0000000000001386      0x18c Core/user/TFT/my_spi.o
 .debug_abbrev  0x0000000000001512      0x1c7 Drivers/STM32F1xx_HAL_Driver/Src/stm32f1xx_hal.o
 .debug_abbrev  0x00000000000016d9      0x1d5 Drivers/STM32F1xx_HAL_Driver/Src/stm32f1xx_hal_adc.o
 .debug_abbrev  0x00000000000018ae      0x2d5 Drivers/STM32F1xx_HAL_Driver/Src/stm32f1xx_hal_cortex.o
 .debug_abbrev  0x0000000000001b83      0x1fe Drivers/STM32F1xx_HAL_Driver/Src/stm32f1xx_hal_dma.o
 .debug_abbrev  0x0000000000001d81      0x1c0 Drivers/STM32F1xx_HAL_Driver/Src/stm32f1xx_hal_gpio.o
 .debug_abbrev  0x0000000000001f41      0x258 Drivers/STM32F1xx_HAL_Driver/Src/stm32f1xx_hal_i2c.o
 .debug_abbrev  0x0000000000002199      0x243 Drivers/STM32F1xx_HAL_Driver/Src/stm32f1xx_hal_rcc.o
 .debug_abbrev  0x00000000000023dc      0x175 Drivers/STM32F1xx_HAL_Driver/Src/stm32f1xx_hal_rcc_ex.o
 .debug_abbrev  0x0000000000002551      0x240 Drivers/STM32F1xx_HAL_Driver/Src/stm32f1xx_hal_spi.o
 .debug_abbrev  0x0000000000002791      0x230 Drivers/STM32F1xx_HAL_Driver/Src/stm32f1xx_hal_tim.o
 .debug_abbrev  0x00000000000029c1      0x236 Drivers/STM32F1xx_HAL_Driver/Src/stm32f1xx_hal_tim_ex.o

.debug_aranges  0x0000000000000000     0x1188
 .debug_aranges
                0x0000000000000000       0x30 Core/Src/adc.o
 .debug_aranges
                0x0000000000000030       0x20 Core/Src/dma.o
 .debug_aranges
                0x0000000000000050       0x20 Core/Src/gpio.o
 .debug_aranges
                0x0000000000000070       0x30 Core/Src/i2c.o
 .debug_aranges
                0x00000000000000a0       0x30 Core/Src/main.o
 .debug_aranges
                0x00000000000000d0       0x30 Core/Src/spi.o
 .debug_aranges
                0x0000000000000100       0x20 Core/Src/stm32f1xx_hal_msp.o
 .debug_aranges
                0x0000000000000120       0x68 Core/Src/stm32f1xx_it.o
 .debug_aranges
                0x0000000000000188       0x28 Core/Src/system_stm32f1xx.o
 .debug_aranges
                0x00000000000001b0       0x40 Core/Src/tim.o
 .debug_aranges
                0x00000000000001f0       0x28 Core/Startup/startup_stm32f103rctx.o
 .debug_aranges
                0x0000000000000218       0xb8 Core/user/TFT/gui.o
 .debug_aranges
                0x00000000000002d0       0x78 Core/user/TFT/lcd.o
 .debug_aranges
                0x0000000000000348       0x30 Core/user/TFT/my_spi.o
 .debug_aranges
                0x0000000000000378       0xe0 Drivers/STM32F1xx_HAL_Driver/Src/stm32f1xx_hal.o
 .debug_aranges
                0x0000000000000458       0xf0 Drivers/STM32F1xx_HAL_Driver/Src/stm32f1xx_hal_adc.o
 .debug_aranges
                0x0000000000000548      0x100 Drivers/STM32F1xx_HAL_Driver/Src/stm32f1xx_hal_cortex.o
 .debug_aranges
                0x0000000000000648       0x80 Drivers/STM32F1xx_HAL_Driver/Src/stm32f1xx_hal_dma.o
 .debug_aranges
                0x00000000000006c8       0x58 Drivers/STM32F1xx_HAL_Driver/Src/stm32f1xx_hal_gpio.o
 .debug_aranges
                0x0000000000000720      0x2a0 Drivers/STM32F1xx_HAL_Driver/Src/stm32f1xx_hal_i2c.o
 .debug_aranges
                0x00000000000009c0       0x90 Drivers/STM32F1xx_HAL_Driver/Src/stm32f1xx_hal_rcc.o
 .debug_aranges
                0x0000000000000a50       0x30 Drivers/STM32F1xx_HAL_Driver/Src/stm32f1xx_hal_rcc_ex.o
 .debug_aranges
                0x0000000000000a80      0x1d0 Drivers/STM32F1xx_HAL_Driver/Src/stm32f1xx_hal_spi.o
 .debug_aranges
                0x0000000000000c50      0x3d0 Drivers/STM32F1xx_HAL_Driver/Src/stm32f1xx_hal_tim.o
 .debug_aranges
                0x0000000000001020      0x168 Drivers/STM32F1xx_HAL_Driver/Src/stm32f1xx_hal_tim_ex.o

.debug_ranges   0x0000000000000000     0x1028
 .debug_ranges  0x0000000000000000       0x20 Core/Src/adc.o
 .debug_ranges  0x0000000000000020       0x10 Core/Src/dma.o
 .debug_ranges  0x0000000000000030       0x10 Core/Src/gpio.o
 .debug_ranges  0x0000000000000040       0x20 Core/Src/i2c.o
 .debug_ranges  0x0000000000000060       0x20 Core/Src/main.o
 .debug_ranges  0x0000000000000080       0x20 Core/Src/spi.o
 .debug_ranges  0x00000000000000a0       0x10 Core/Src/stm32f1xx_hal_msp.o
 .debug_ranges  0x00000000000000b0       0x58 Core/Src/stm32f1xx_it.o
 .debug_ranges  0x0000000000000108       0x18 Core/Src/system_stm32f1xx.o
 .debug_ranges  0x0000000000000120       0x30 Core/Src/tim.o
 .debug_ranges  0x0000000000000150       0x20 Core/Startup/startup_stm32f103rctx.o
 .debug_ranges  0x0000000000000170       0xa8 Core/user/TFT/gui.o
 .debug_ranges  0x0000000000000218       0x68 Core/user/TFT/lcd.o
 .debug_ranges  0x0000000000000280       0x20 Core/user/TFT/my_spi.o
 .debug_ranges  0x00000000000002a0       0xd0 Drivers/STM32F1xx_HAL_Driver/Src/stm32f1xx_hal.o
 .debug_ranges  0x0000000000000370       0xe0 Drivers/STM32F1xx_HAL_Driver/Src/stm32f1xx_hal_adc.o
 .debug_ranges  0x0000000000000450       0xf0 Drivers/STM32F1xx_HAL_Driver/Src/stm32f1xx_hal_cortex.o
 .debug_ranges  0x0000000000000540       0x70 Drivers/STM32F1xx_HAL_Driver/Src/stm32f1xx_hal_dma.o
 .debug_ranges  0x00000000000005b0       0x48 Drivers/STM32F1xx_HAL_Driver/Src/stm32f1xx_hal_gpio.o
 .debug_ranges  0x00000000000005f8      0x2b8 Drivers/STM32F1xx_HAL_Driver/Src/stm32f1xx_hal_i2c.o
 .debug_ranges  0x00000000000008b0       0x80 Drivers/STM32F1xx_HAL_Driver/Src/stm32f1xx_hal_rcc.o
 .debug_ranges  0x0000000000000930       0x20 Drivers/STM32F1xx_HAL_Driver/Src/stm32f1xx_hal_rcc_ex.o
 .debug_ranges  0x0000000000000950      0x1c0 Drivers/STM32F1xx_HAL_Driver/Src/stm32f1xx_hal_spi.o
 .debug_ranges  0x0000000000000b10      0x3c0 Drivers/STM32F1xx_HAL_Driver/Src/stm32f1xx_hal_tim.o
 .debug_ranges  0x0000000000000ed0      0x158 Drivers/STM32F1xx_HAL_Driver/Src/stm32f1xx_hal_tim_ex.o

.debug_macro    0x0000000000000000    0x1b7f4
 .debug_macro   0x0000000000000000      0x1da Core/Src/adc.o
 .debug_macro   0x00000000000001da      0xa5a Core/Src/adc.o
 .debug_macro   0x0000000000000c34      0x22d Core/Src/adc.o
 .debug_macro   0x0000000000000e61       0x2e Core/Src/adc.o
 .debug_macro   0x0000000000000e8f       0x22 Core/Src/adc.o
 .debug_macro   0x0000000000000eb1       0x22 Core/Src/adc.o
 .debug_macro   0x0000000000000ed3       0x8e Core/Src/adc.o
 .debug_macro   0x0000000000000f61       0x51 Core/Src/adc.o
 .debug_macro   0x0000000000000fb2       0xef Core/Src/adc.o
 .debug_macro   0x00000000000010a1       0x6a Core/Src/adc.o
 .debug_macro   0x000000000000110b      0x1df Core/Src/adc.o
 .debug_macro   0x00000000000012ea       0x1c Core/Src/adc.o
 .debug_macro   0x0000000000001306       0x22 Core/Src/adc.o
 .debug_macro   0x0000000000001328       0xc3 Core/Src/adc.o
 .debug_macro   0x00000000000013eb      0xd23 Core/Src/adc.o
 .debug_macro   0x000000000000210e     0xfd8c Core/Src/adc.o
 .debug_macro   0x0000000000011e9a       0x6d Core/Src/adc.o
 .debug_macro   0x0000000000011f07     0x3468 Core/Src/adc.o
 .debug_macro   0x000000000001536f      0x174 Core/Src/adc.o
 .debug_macro   0x00000000000154e3       0x5c Core/Src/adc.o
 .debug_macro   0x000000000001553f      0x5be Core/Src/adc.o
 .debug_macro   0x0000000000015afd      0x4d5 Core/Src/adc.o
 .debug_macro   0x0000000000015fd2      0x1cb Core/Src/adc.o
 .debug_macro   0x000000000001619d      0x114 Core/Src/adc.o
 .debug_macro   0x00000000000162b1      0x1ea Core/Src/adc.o
 .debug_macro   0x000000000001649b       0x27 Core/Src/adc.o
 .debug_macro   0x00000000000164c2      0x144 Core/Src/adc.o
 .debug_macro   0x0000000000016606      0x1bc Core/Src/adc.o
 .debug_macro   0x00000000000167c2       0x30 Core/Src/adc.o
 .debug_macro   0x00000000000167f2       0x3c Core/Src/adc.o
 .debug_macro   0x000000000001682e       0x57 Core/Src/adc.o
 .debug_macro   0x0000000000016885      0x46a Core/Src/adc.o
 .debug_macro   0x0000000000016cef      0x25d Core/Src/adc.o
 .debug_macro   0x0000000000016f4c       0x88 Core/Src/adc.o
 .debug_macro   0x0000000000016fd4      0x24f Core/Src/adc.o
 .debug_macro   0x0000000000017223      0x287 Core/Src/adc.o
 .debug_macro   0x00000000000174aa      0x141 Core/Src/adc.o
 .debug_macro   0x00000000000175eb      0x217 Core/Src/adc.o
 .debug_macro   0x0000000000017802      0x8d1 Core/Src/adc.o
 .debug_macro   0x00000000000180d3       0xb5 Core/Src/adc.o
 .debug_macro   0x0000000000018188       0x88 Core/Src/adc.o
 .debug_macro   0x0000000000018210      0x1da Core/Src/dma.o
 .debug_macro   0x00000000000183ea      0x1da Core/Src/gpio.o
 .debug_macro   0x00000000000185c4      0x1da Core/Src/i2c.o
 .debug_macro   0x000000000001879e      0x2f0 Core/Src/main.o
 .debug_macro   0x0000000000018a8e       0x1c Core/Src/main.o
 .debug_macro   0x0000000000018aaa       0x18 Core/Src/main.o
 .debug_macro   0x0000000000018ac2       0x46 Core/Src/main.o
 .debug_macro   0x0000000000018b08       0x3c Core/Src/main.o
 .debug_macro   0x0000000000018b44       0x34 Core/Src/main.o
 .debug_macro   0x0000000000018b78       0x16 Core/Src/main.o
 .debug_macro   0x0000000000018b8e       0x35 Core/Src/main.o
 .debug_macro   0x0000000000018bc3       0x52 Core/Src/main.o
 .debug_macro   0x0000000000018c15       0x1f Core/Src/main.o
 .debug_macro   0x0000000000018c34       0x43 Core/Src/main.o
 .debug_macro   0x0000000000018c77       0x20 Core/Src/main.o
 .debug_macro   0x0000000000018c97      0x1a3 Core/Src/main.o
 .debug_macro   0x0000000000018e3a      0x32a Core/Src/main.o
 .debug_macro   0x0000000000019164       0x16 Core/Src/main.o
 .debug_macro   0x000000000001917a       0x29 Core/Src/main.o
 .debug_macro   0x00000000000191a3       0xd0 Core/Src/main.o
 .debug_macro   0x0000000000019273       0x46 Core/Src/main.o
 .debug_macro   0x00000000000192b9      0x1da Core/Src/spi.o
 .debug_macro   0x0000000000019493      0x1d0 Core/Src/stm32f1xx_hal_msp.o
 .debug_macro   0x0000000000019663      0x1da Core/Src/stm32f1xx_it.o
 .debug_macro   0x000000000001983d      0x1c1 Core/Src/system_stm32f1xx.o
 .debug_macro   0x00000000000199fe      0x1da Core/Src/tim.o
 .debug_macro   0x0000000000019bd8      0x2e1 Core/user/TFT/gui.o
 .debug_macro   0x0000000000019eb9       0x16 Core/user/TFT/gui.o
 .debug_macro   0x0000000000019ecf       0x20 Core/user/TFT/gui.o
 .debug_macro   0x0000000000019eef      0x2b5 Core/user/TFT/lcd.o
 .debug_macro   0x000000000001a1a4       0x10 Core/user/TFT/lcd.o
 .debug_macro   0x000000000001a1b4      0x1e7 Core/user/TFT/my_spi.o
 .debug_macro   0x000000000001a39b      0x1e5 Drivers/STM32F1xx_HAL_Driver/Src/stm32f1xx_hal.o
 .debug_macro   0x000000000001a580      0x1de Drivers/STM32F1xx_HAL_Driver/Src/stm32f1xx_hal_adc.o
 .debug_macro   0x000000000001a75e      0x1c1 Drivers/STM32F1xx_HAL_Driver/Src/stm32f1xx_hal_cortex.o
 .debug_macro   0x000000000001a91f      0x1c1 Drivers/STM32F1xx_HAL_Driver/Src/stm32f1xx_hal_dma.o
 .debug_macro   0x000000000001aae0      0x22c Drivers/STM32F1xx_HAL_Driver/Src/stm32f1xx_hal_gpio.o
 .debug_macro   0x000000000001ad0c      0x208 Drivers/STM32F1xx_HAL_Driver/Src/stm32f1xx_hal_i2c.o
 .debug_macro   0x000000000001af14      0x1d3 Drivers/STM32F1xx_HAL_Driver/Src/stm32f1xx_hal_rcc.o
 .debug_macro   0x000000000001b0e7      0x1c1 Drivers/STM32F1xx_HAL_Driver/Src/stm32f1xx_hal_rcc_ex.o
 .debug_macro   0x000000000001b2a8      0x1c9 Drivers/STM32F1xx_HAL_Driver/Src/stm32f1xx_hal_spi.o
 .debug_macro   0x000000000001b471      0x1c2 Drivers/STM32F1xx_HAL_Driver/Src/stm32f1xx_hal_tim.o
 .debug_macro   0x000000000001b633      0x1c1 Drivers/STM32F1xx_HAL_Driver/Src/stm32f1xx_hal_tim_ex.o

.debug_line     0x0000000000000000    0x10e15
 .debug_line    0x0000000000000000      0x6fc Core/Src/adc.o
 .debug_line    0x00000000000006fc      0x6b9 Core/Src/dma.o
 .debug_line    0x0000000000000db5      0x6d8 Core/Src/gpio.o
 .debug_line    0x000000000000148d      0x6ee Core/Src/i2c.o
 .debug_line    0x0000000000001b7b      0x950 Core/Src/main.o
 .debug_line    0x00000000000024cb      0x6f1 Core/Src/spi.o
 .debug_line    0x0000000000002bbc      0x6bf Core/Src/stm32f1xx_hal_msp.o
 .debug_line    0x000000000000327b      0x778 Core/Src/stm32f1xx_it.o
 .debug_line    0x00000000000039f3      0x6e6 Core/Src/system_stm32f1xx.o
 .debug_line    0x00000000000040d9      0x748 Core/Src/tim.o
 .debug_line    0x0000000000004821       0x87 Core/Startup/startup_stm32f103rctx.o
 .debug_line    0x00000000000048a8      0xc7f Core/user/TFT/gui.o
 .debug_line    0x0000000000005527      0x987 Core/user/TFT/lcd.o
 .debug_line    0x0000000000005eae      0x702 Core/user/TFT/my_spi.o
 .debug_line    0x00000000000065b0      0x899 Drivers/STM32F1xx_HAL_Driver/Src/stm32f1xx_hal.o
 .debug_line    0x0000000000006e49      0xc04 Drivers/STM32F1xx_HAL_Driver/Src/stm32f1xx_hal_adc.o
 .debug_line    0x0000000000007a4d      0x970 Drivers/STM32F1xx_HAL_Driver/Src/stm32f1xx_hal_cortex.o
 .debug_line    0x00000000000083bd      0xf80 Drivers/STM32F1xx_HAL_Driver/Src/stm32f1xx_hal_dma.o
 .debug_line    0x000000000000933d      0x8bd Drivers/STM32F1xx_HAL_Driver/Src/stm32f1xx_hal_gpio.o
 .debug_line    0x0000000000009bfa     0x1cab Drivers/STM32F1xx_HAL_Driver/Src/stm32f1xx_hal_i2c.o
 .debug_line    0x000000000000b8a5      0x959 Drivers/STM32F1xx_HAL_Driver/Src/stm32f1xx_hal_rcc.o
 .debug_line    0x000000000000c1fe      0x77d Drivers/STM32F1xx_HAL_Driver/Src/stm32f1xx_hal_rcc_ex.o
 .debug_line    0x000000000000c97b     0x1088 Drivers/STM32F1xx_HAL_Driver/Src/stm32f1xx_hal_spi.o
 .debug_line    0x000000000000da03     0x2220 Drivers/STM32F1xx_HAL_Driver/Src/stm32f1xx_hal_tim.o
 .debug_line    0x000000000000fc23     0x11f2 Drivers/STM32F1xx_HAL_Driver/Src/stm32f1xx_hal_tim_ex.o

.debug_str      0x0000000000000000    0x9f7ea
 .debug_str     0x0000000000000000    0x97c95 Core/Src/adc.o
                                      0x98121 (size before relaxing)
 .debug_str     0x0000000000097c95      0x325 Core/Src/dma.o
                                      0x980e3 (size before relaxing)
 .debug_str     0x0000000000097fba       0x48 Core/Src/gpio.o
                                      0x97da5 (size before relaxing)
 .debug_str     0x0000000000098002      0x290 Core/Src/i2c.o
                                      0x98230 (size before relaxing)
 .debug_str     0x0000000000098292     0x398e Core/Src/main.o
                                      0x9bd70 (size before relaxing)
 .debug_str     0x000000000009bc20       0x79 Core/Src/spi.o
                                      0x981bb (size before relaxing)
 .debug_str     0x000000000009bc99       0x2c Core/Src/stm32f1xx_hal_msp.o
                                      0x97d5b (size before relaxing)
 .debug_str     0x000000000009bcc5       0xd6 Core/Src/stm32f1xx_it.o
                                      0x97f72 (size before relaxing)
 .debug_str     0x000000000009bd9b       0x52 Core/Src/system_stm32f1xx.o
                                      0x97b6f (size before relaxing)
 .debug_str     0x000000000009bded      0x131 Core/Src/tim.o
                                      0x9837a (size before relaxing)
 .debug_str     0x000000000009bf1e       0x36 Core/Startup/startup_stm32f103rctx.o
                                         0x70 (size before relaxing)
 .debug_str     0x000000000009bf54      0x26f Core/user/TFT/gui.o
                                      0x9b268 (size before relaxing)
 .debug_str     0x000000000009c1c3      0x109 Core/user/TFT/lcd.o
                                      0x9b4b8 (size before relaxing)
 .debug_str     0x000000000009c2cc       0x43 Core/user/TFT/my_spi.o
                                      0x980fe (size before relaxing)
 .debug_str     0x000000000009c30f      0x2fa Drivers/STM32F1xx_HAL_Driver/Src/stm32f1xx_hal.o
                                      0x982e4 (size before relaxing)
 .debug_str     0x000000000009c609      0x35c Drivers/STM32F1xx_HAL_Driver/Src/stm32f1xx_hal_adc.o
                                      0x981ff (size before relaxing)
 .debug_str     0x000000000009c965      0x300 Drivers/STM32F1xx_HAL_Driver/Src/stm32f1xx_hal_cortex.o
                                      0x982ec (size before relaxing)
 .debug_str     0x000000000009cc65      0x230 Drivers/STM32F1xx_HAL_Driver/Src/stm32f1xx_hal_dma.o
                                      0x97f4a (size before relaxing)
 .debug_str     0x000000000009ce95      0x31f Drivers/STM32F1xx_HAL_Driver/Src/stm32f1xx_hal_gpio.o
                                      0x97f33 (size before relaxing)
 .debug_str     0x000000000009d1b4      0xb46 Drivers/STM32F1xx_HAL_Driver/Src/stm32f1xx_hal_i2c.o
                                      0x98bab (size before relaxing)
 .debug_str     0x000000000009dcfa      0x244 Drivers/STM32F1xx_HAL_Driver/Src/stm32f1xx_hal_rcc.o
                                      0x97f6c (size before relaxing)
 .debug_str     0x000000000009df3e       0xb9 Drivers/STM32F1xx_HAL_Driver/Src/stm32f1xx_hal_rcc_ex.o
                                      0x97d1f (size before relaxing)
 .debug_str     0x000000000009dff7      0x533 Drivers/STM32F1xx_HAL_Driver/Src/stm32f1xx_hal_spi.o
                                      0x98481 (size before relaxing)
 .debug_str     0x000000000009e52a      0xdd2 Drivers/STM32F1xx_HAL_Driver/Src/stm32f1xx_hal_tim.o
                                      0x98f3e (size before relaxing)
 .debug_str     0x000000000009f2fc      0x4ee Drivers/STM32F1xx_HAL_Driver/Src/stm32f1xx_hal_tim_ex.o
                                      0x986ef (size before relaxing)

.comment        0x0000000000000000       0x7b
 .comment       0x0000000000000000       0x7b Core/Src/adc.o
                                         0x7c (size before relaxing)
 .comment       0x000000000000007b       0x7c Core/Src/dma.o
 .comment       0x000000000000007b       0x7c Core/Src/gpio.o
 .comment       0x000000000000007b       0x7c Core/Src/i2c.o
 .comment       0x000000000000007b       0x7c Core/Src/main.o
 .comment       0x000000000000007b       0x7c Core/Src/spi.o
 .comment       0x000000000000007b       0x7c Core/Src/stm32f1xx_hal_msp.o
 .comment       0x000000000000007b       0x7c Core/Src/stm32f1xx_it.o
 .comment       0x000000000000007b       0x7c Core/Src/system_stm32f1xx.o
 .comment       0x000000000000007b       0x7c Core/Src/tim.o
 .comment       0x000000000000007b       0x7c Core/user/TFT/gui.o
 .comment       0x000000000000007b       0x7c Core/user/TFT/lcd.o
 .comment       0x000000000000007b       0x7c Core/user/TFT/my_spi.o
 .comment       0x000000000000007b       0x7c Drivers/STM32F1xx_HAL_Driver/Src/stm32f1xx_hal.o
 .comment       0x000000000000007b       0x7c Drivers/STM32F1xx_HAL_Driver/Src/stm32f1xx_hal_adc.o
 .comment       0x000000000000007b       0x7c Drivers/STM32F1xx_HAL_Driver/Src/stm32f1xx_hal_cortex.o
 .comment       0x000000000000007b       0x7c Drivers/STM32F1xx_HAL_Driver/Src/stm32f1xx_hal_dma.o
 .comment       0x000000000000007b       0x7c Drivers/STM32F1xx_HAL_Driver/Src/stm32f1xx_hal_gpio.o
 .comment       0x000000000000007b       0x7c Drivers/STM32F1xx_HAL_Driver/Src/stm32f1xx_hal_i2c.o
 .comment       0x000000000000007b       0x7c Drivers/STM32F1xx_HAL_Driver/Src/stm32f1xx_hal_rcc.o
 .comment       0x000000000000007b       0x7c Drivers/STM32F1xx_HAL_Driver/Src/stm32f1xx_hal_rcc_ex.o
 .comment       0x000000000000007b       0x7c Drivers/STM32F1xx_HAL_Driver/Src/stm32f1xx_hal_spi.o
 .comment       0x000000000000007b       0x7c Drivers/STM32F1xx_HAL_Driver/Src/stm32f1xx_hal_tim.o
 .comment       0x000000000000007b       0x7c Drivers/STM32F1xx_HAL_Driver/Src/stm32f1xx_hal_tim_ex.o

.debug_frame    0x0000000000000000     0x482c
 .debug_frame   0x0000000000000000       0x7c Core/Src/adc.o
 .debug_frame   0x000000000000007c       0x34 Core/Src/dma.o
 .debug_frame   0x00000000000000b0       0x34 Core/Src/gpio.o
 .debug_frame   0x00000000000000e4       0x74 Core/Src/i2c.o
 .debug_frame   0x0000000000000158       0x6c Core/Src/main.o
 .debug_frame   0x00000000000001c4       0x74 Core/Src/spi.o
 .debug_frame   0x0000000000000238       0x38 Core/Src/stm32f1xx_hal_msp.o
 .debug_frame   0x0000000000000270      0x120 Core/Src/stm32f1xx_it.o
 .debug_frame   0x0000000000000390       0x58 Core/Src/system_stm32f1xx.o
 .debug_frame   0x00000000000003e8       0xcc Core/Src/tim.o
 .debug_frame   0x00000000000004b4      0x32c Core/user/TFT/gui.o
 .debug_frame   0x00000000000007e0      0x1ac Core/user/TFT/lcd.o
 .debug_frame   0x000000000000098c       0x80 Core/user/TFT/my_spi.o
 .debug_frame   0x0000000000000a0c      0x334 Drivers/STM32F1xx_HAL_Driver/Src/stm32f1xx_hal.o
 .debug_frame   0x0000000000000d40      0x40c Drivers/STM32F1xx_HAL_Driver/Src/stm32f1xx_hal_adc.o
 .debug_frame   0x000000000000114c      0x428 Drivers/STM32F1xx_HAL_Driver/Src/stm32f1xx_hal_cortex.o
 .debug_frame   0x0000000000001574      0x20c Drivers/STM32F1xx_HAL_Driver/Src/stm32f1xx_hal_dma.o
 .debug_frame   0x0000000000001780      0x14c Drivers/STM32F1xx_HAL_Driver/Src/stm32f1xx_hal_gpio.o
 .debug_frame   0x00000000000018cc      0xc5c Drivers/STM32F1xx_HAL_Driver/Src/stm32f1xx_hal_i2c.o
 .debug_frame   0x0000000000002528      0x21c Drivers/STM32F1xx_HAL_Driver/Src/stm32f1xx_hal_rcc.o
 .debug_frame   0x0000000000002744       0x84 Drivers/STM32F1xx_HAL_Driver/Src/stm32f1xx_hal_rcc_ex.o
 .debug_frame   0x00000000000027c8      0x824 Drivers/STM32F1xx_HAL_Driver/Src/stm32f1xx_hal_spi.o
 .debug_frame   0x0000000000002fec     0x11bc Drivers/STM32F1xx_HAL_Driver/Src/stm32f1xx_hal_tim.o
 .debug_frame   0x00000000000041a8      0x638 Drivers/STM32F1xx_HAL_Driver/Src/stm32f1xx_hal_tim_ex.o
 .debug_frame   0x00000000000047e0       0x2c c:/st/stm32cubeide_1.5.0/stm32cubeide/plugins/com.st.stm32cube.ide.mcu.externaltools.gnu-tools-for-stm32.7-2018-q2-update.win32_1.5.0.202011040924/tools/bin/../lib/gcc/arm-none-eabi/7.3.1/../../../../arm-none-eabi/lib/thumb/v7-m\libc_nano.a(lib_a-init.o)
 .debug_frame   0x000000000000480c       0x20 c:/st/stm32cubeide_1.5.0/stm32cubeide/plugins/com.st.stm32cube.ide.mcu.externaltools.gnu-tools-for-stm32.7-2018-q2-update.win32_1.5.0.202011040924/tools/bin/../lib/gcc/arm-none-eabi/7.3.1/../../../../arm-none-eabi/lib/thumb/v7-m\libc_nano.a(lib_a-memset.o)
